{
  "contractName": "Agent",
  "abi": [
    {
      "constant": true,
      "inputs": [],
      "name": "ADD_PROTECTED_TOKEN_ROLE",
      "outputs": [
        {
          "name": "",
          "type": "bytes32"
        }
      ],
      "payable": false,
      "stateMutability": "view",
      "type": "function"
    },
    {
      "constant": true,
      "inputs": [],
      "name": "hasInitialized",
      "outputs": [
        {
          "name": "",
          "type": "bool"
        }
      ],
      "payable": false,
      "stateMutability": "view",
      "type": "function"
    },
    {
      "constant": true,
      "inputs": [],
      "name": "ERC1271_INTERFACE_ID",
      "outputs": [
        {
          "name": "",
          "type": "bytes4"
        }
      ],
      "payable": false,
      "stateMutability": "view",
      "type": "function"
    },
    {
      "constant": true,
      "inputs": [],
      "name": "ERC1271_RETURN_INVALID_SIGNATURE",
      "outputs": [
        {
          "name": "",
          "type": "bytes4"
        }
      ],
      "payable": false,
      "stateMutability": "view",
      "type": "function"
    },
    {
      "constant": true,
      "inputs": [],
      "name": "TRANSFER_ROLE",
      "outputs": [
        {
          "name": "",
          "type": "bytes32"
        }
      ],
      "payable": false,
      "stateMutability": "view",
      "type": "function"
    },
    {
      "constant": true,
      "inputs": [
        {
          "name": "_script",
          "type": "bytes"
        }
      ],
      "name": "getEVMScriptExecutor",
      "outputs": [
        {
          "name": "",
          "type": "address"
        }
      ],
      "payable": false,
      "stateMutability": "view",
      "type": "function"
    },
    {
      "constant": true,
      "inputs": [],
      "name": "getRecoveryVault",
      "outputs": [
        {
          "name": "",
          "type": "address"
        }
      ],
      "payable": false,
      "stateMutability": "view",
      "type": "function"
    },
    {
      "constant": true,
      "inputs": [],
      "name": "RUN_SCRIPT_ROLE",
      "outputs": [
        {
          "name": "",
          "type": "bytes32"
        }
      ],
      "payable": false,
      "stateMutability": "view",
      "type": "function"
    },
    {
      "constant": true,
      "inputs": [],
      "name": "SAFE_EXECUTE_ROLE",
      "outputs": [
        {
          "name": "",
          "type": "bytes32"
        }
      ],
      "payable": false,
      "stateMutability": "view",
      "type": "function"
    },
    {
      "constant": true,
      "inputs": [],
      "name": "REMOVE_PROTECTED_TOKEN_ROLE",
      "outputs": [
        {
          "name": "",
          "type": "bytes32"
        }
      ],
      "payable": false,
      "stateMutability": "view",
      "type": "function"
    },
    {
      "constant": false,
      "inputs": [
        {
          "name": "_token",
          "type": "address"
        },
        {
          "name": "_value",
          "type": "uint256"
        }
      ],
      "name": "deposit",
      "outputs": [],
      "payable": true,
      "stateMutability": "payable",
      "type": "function"
    },
    {
      "constant": true,
      "inputs": [],
      "name": "isDepositable",
      "outputs": [
        {
          "name": "",
          "type": "bool"
        }
      ],
      "payable": false,
      "stateMutability": "view",
      "type": "function"
    },
    {
      "constant": true,
      "inputs": [],
      "name": "DESIGNATE_SIGNER_ROLE",
      "outputs": [
        {
          "name": "",
          "type": "bytes32"
        }
      ],
      "payable": false,
      "stateMutability": "view",
      "type": "function"
    },
    {
      "constant": true,
      "inputs": [],
      "name": "EXECUTE_ROLE",
      "outputs": [
        {
          "name": "",
          "type": "bytes32"
        }
      ],
      "payable": false,
      "stateMutability": "view",
      "type": "function"
    },
    {
      "constant": true,
      "inputs": [
        {
          "name": "",
          "type": "address"
        }
      ],
      "name": "allowRecoverability",
      "outputs": [
        {
          "name": "",
          "type": "bool"
        }
      ],
      "payable": false,
      "stateMutability": "view",
      "type": "function"
    },
    {
      "constant": true,
      "inputs": [],
      "name": "appId",
      "outputs": [
        {
          "name": "",
          "type": "bytes32"
        }
      ],
      "payable": false,
      "stateMutability": "view",
      "type": "function"
    },
    {
      "constant": false,
      "inputs": [],
      "name": "initialize",
      "outputs": [],
      "payable": false,
      "stateMutability": "nonpayable",
      "type": "function"
    },
    {
      "constant": true,
      "inputs": [
        {
          "name": "",
          "type": "uint256"
        }
      ],
      "name": "protectedTokens",
      "outputs": [
        {
          "name": "",
          "type": "address"
        }
      ],
      "payable": false,
      "stateMutability": "view",
      "type": "function"
    },
    {
      "constant": true,
      "inputs": [],
      "name": "getInitializationBlock",
      "outputs": [
        {
          "name": "",
          "type": "uint256"
        }
      ],
      "payable": false,
      "stateMutability": "view",
      "type": "function"
    },
    {
      "constant": true,
      "inputs": [],
      "name": "ERC1271_RETURN_VALID_SIGNATURE",
      "outputs": [
        {
          "name": "",
          "type": "bytes4"
        }
      ],
      "payable": false,
      "stateMutability": "view",
      "type": "function"
    },
    {
      "constant": false,
      "inputs": [
        {
          "name": "_token",
          "type": "address"
        }
      ],
      "name": "transferToVault",
      "outputs": [],
      "payable": false,
      "stateMutability": "nonpayable",
      "type": "function"
    },
    {
      "constant": true,
      "inputs": [
        {
          "name": "_sender",
          "type": "address"
        },
        {
          "name": "_role",
          "type": "bytes32"
        },
        {
          "name": "_params",
          "type": "uint256[]"
        }
      ],
      "name": "canPerform",
      "outputs": [
        {
          "name": "",
          "type": "bool"
        }
      ],
      "payable": false,
      "stateMutability": "view",
      "type": "function"
    },
    {
      "constant": true,
      "inputs": [],
      "name": "getEVMScriptRegistry",
      "outputs": [
        {
          "name": "",
          "type": "address"
        }
      ],
      "payable": false,
      "stateMutability": "view",
      "type": "function"
    },
    {
      "constant": true,
      "inputs": [],
      "name": "designatedSigner",
      "outputs": [
        {
          "name": "",
          "type": "address"
        }
      ],
      "payable": false,
      "stateMutability": "view",
      "type": "function"
    },
    {
      "constant": true,
      "inputs": [],
      "name": "PROTECTED_TOKENS_CAP",
      "outputs": [
        {
          "name": "",
          "type": "uint256"
        }
      ],
      "payable": false,
      "stateMutability": "view",
      "type": "function"
    },
    {
      "constant": true,
      "inputs": [],
      "name": "ADD_PRESIGNED_HASH_ROLE",
      "outputs": [
        {
          "name": "",
          "type": "bytes32"
        }
      ],
      "payable": false,
      "stateMutability": "view",
      "type": "function"
    },
    {
      "constant": true,
      "inputs": [
        {
          "name": "",
          "type": "bytes32"
        }
      ],
      "name": "isPresigned",
      "outputs": [
        {
          "name": "",
          "type": "bool"
        }
      ],
      "payable": false,
      "stateMutability": "view",
      "type": "function"
    },
    {
      "constant": false,
      "inputs": [
        {
          "name": "_token",
          "type": "address"
        },
        {
          "name": "_to",
          "type": "address"
        },
        {
          "name": "_value",
          "type": "uint256"
        }
      ],
      "name": "transfer",
      "outputs": [],
      "payable": false,
      "stateMutability": "nonpayable",
      "type": "function"
    },
    {
      "constant": true,
      "inputs": [],
      "name": "kernel",
      "outputs": [
        {
          "name": "",
          "type": "address"
        }
      ],
      "payable": false,
      "stateMutability": "view",
      "type": "function"
    },
    {
      "constant": true,
      "inputs": [],
      "name": "isPetrified",
      "outputs": [
        {
          "name": "",
          "type": "bool"
        }
      ],
      "payable": false,
      "stateMutability": "view",
      "type": "function"
    },
    {
      "constant": true,
      "inputs": [
        {
          "name": "_token",
          "type": "address"
        }
      ],
      "name": "balance",
      "outputs": [
        {
          "name": "",
          "type": "uint256"
        }
      ],
      "payable": false,
      "stateMutability": "view",
      "type": "function"
    },
    {
      "payable": true,
      "stateMutability": "payable",
      "type": "fallback"
    },
    {
      "anonymous": false,
      "inputs": [
        {
          "indexed": true,
          "name": "sender",
          "type": "address"
        },
        {
          "indexed": true,
          "name": "target",
          "type": "address"
        },
        {
          "indexed": false,
          "name": "data",
          "type": "bytes"
        }
      ],
      "name": "SafeExecute",
      "type": "event"
    },
    {
      "anonymous": false,
      "inputs": [
        {
          "indexed": true,
          "name": "sender",
          "type": "address"
        },
        {
          "indexed": true,
          "name": "target",
          "type": "address"
        },
        {
          "indexed": false,
          "name": "ethValue",
          "type": "uint256"
        },
        {
          "indexed": false,
          "name": "data",
          "type": "bytes"
        }
      ],
      "name": "Execute",
      "type": "event"
    },
    {
      "anonymous": false,
      "inputs": [
        {
          "indexed": true,
          "name": "token",
          "type": "address"
        }
      ],
      "name": "AddProtectedToken",
      "type": "event"
    },
    {
      "anonymous": false,
      "inputs": [
        {
          "indexed": true,
          "name": "token",
          "type": "address"
        }
      ],
      "name": "RemoveProtectedToken",
      "type": "event"
    },
    {
      "anonymous": false,
      "inputs": [
        {
          "indexed": true,
          "name": "sender",
          "type": "address"
        },
        {
          "indexed": true,
          "name": "hash",
          "type": "bytes32"
        }
      ],
      "name": "PresignHash",
      "type": "event"
    },
    {
      "anonymous": false,
      "inputs": [
        {
          "indexed": true,
          "name": "sender",
          "type": "address"
        },
        {
          "indexed": true,
          "name": "oldSigner",
          "type": "address"
        },
        {
          "indexed": true,
          "name": "newSigner",
          "type": "address"
        }
      ],
      "name": "SetDesignatedSigner",
      "type": "event"
    },
    {
      "anonymous": false,
      "inputs": [
        {
          "indexed": true,
          "name": "token",
          "type": "address"
        },
        {
          "indexed": true,
          "name": "to",
          "type": "address"
        },
        {
          "indexed": false,
          "name": "amount",
          "type": "uint256"
        }
      ],
      "name": "VaultTransfer",
      "type": "event"
    },
    {
      "anonymous": false,
      "inputs": [
        {
          "indexed": true,
          "name": "token",
          "type": "address"
        },
        {
          "indexed": true,
          "name": "sender",
          "type": "address"
        },
        {
          "indexed": false,
          "name": "amount",
          "type": "uint256"
        }
      ],
      "name": "VaultDeposit",
      "type": "event"
    },
    {
      "anonymous": false,
      "inputs": [
        {
          "indexed": true,
          "name": "executor",
          "type": "address"
        },
        {
          "indexed": false,
          "name": "script",
          "type": "bytes"
        },
        {
          "indexed": false,
          "name": "input",
          "type": "bytes"
        },
        {
          "indexed": false,
          "name": "returnData",
          "type": "bytes"
        }
      ],
      "name": "ScriptResult",
      "type": "event"
    },
    {
      "anonymous": false,
      "inputs": [
        {
          "indexed": true,
          "name": "vault",
          "type": "address"
        },
        {
          "indexed": true,
          "name": "token",
          "type": "address"
        },
        {
          "indexed": false,
          "name": "amount",
          "type": "uint256"
        }
      ],
      "name": "RecoverToVault",
      "type": "event"
    },
    {
      "constant": false,
      "inputs": [
        {
          "name": "_target",
          "type": "address"
        },
        {
          "name": "_ethValue",
          "type": "uint256"
        },
        {
          "name": "_data",
          "type": "bytes"
        }
      ],
      "name": "execute",
      "outputs": [],
      "payable": false,
      "stateMutability": "nonpayable",
      "type": "function"
    },
    {
      "constant": false,
      "inputs": [
        {
          "name": "_target",
          "type": "address"
        },
        {
          "name": "_data",
          "type": "bytes"
        }
      ],
      "name": "safeExecute",
      "outputs": [],
      "payable": false,
      "stateMutability": "nonpayable",
      "type": "function"
    },
    {
      "constant": false,
      "inputs": [
        {
          "name": "_token",
          "type": "address"
        }
      ],
      "name": "addProtectedToken",
      "outputs": [],
      "payable": false,
      "stateMutability": "nonpayable",
      "type": "function"
    },
    {
      "constant": false,
      "inputs": [
        {
          "name": "_token",
          "type": "address"
        }
      ],
      "name": "removeProtectedToken",
      "outputs": [],
      "payable": false,
      "stateMutability": "nonpayable",
      "type": "function"
    },
    {
      "constant": false,
      "inputs": [
        {
          "name": "_hash",
          "type": "bytes32"
        }
      ],
      "name": "presignHash",
      "outputs": [],
      "payable": false,
      "stateMutability": "nonpayable",
      "type": "function"
    },
    {
      "constant": false,
      "inputs": [
        {
          "name": "_designatedSigner",
          "type": "address"
        }
      ],
      "name": "setDesignatedSigner",
      "outputs": [],
      "payable": false,
      "stateMutability": "nonpayable",
      "type": "function"
    },
    {
      "constant": true,
      "inputs": [],
      "name": "isForwarder",
      "outputs": [
        {
          "name": "",
          "type": "bool"
        }
      ],
      "payable": false,
      "stateMutability": "pure",
      "type": "function"
    },
    {
      "constant": false,
      "inputs": [
        {
          "name": "_evmScript",
          "type": "bytes"
        }
      ],
      "name": "forward",
      "outputs": [],
      "payable": false,
      "stateMutability": "nonpayable",
      "type": "function"
    },
    {
      "constant": true,
      "inputs": [
        {
          "name": "_sender",
          "type": "address"
        },
        {
          "name": "_evmScript",
          "type": "bytes"
        }
      ],
      "name": "canForward",
      "outputs": [
        {
          "name": "",
          "type": "bool"
        }
      ],
      "payable": false,
      "stateMutability": "view",
      "type": "function"
    },
    {
      "constant": true,
      "inputs": [
        {
          "name": "_interfaceId",
          "type": "bytes4"
        }
      ],
      "name": "supportsInterface",
      "outputs": [
        {
          "name": "",
          "type": "bool"
        }
      ],
      "payable": false,
      "stateMutability": "pure",
      "type": "function"
    },
    {
      "constant": true,
      "inputs": [
        {
          "name": "_hash",
          "type": "bytes32"
        },
        {
          "name": "_signature",
          "type": "bytes"
        }
      ],
      "name": "isValidSignature",
      "outputs": [
        {
          "name": "",
          "type": "bytes4"
        }
      ],
      "payable": false,
      "stateMutability": "view",
      "type": "function"
    },
    {
      "constant": true,
      "inputs": [
        {
          "name": "_data",
          "type": "bytes"
        },
        {
          "name": "_signature",
          "type": "bytes"
        }
      ],
      "name": "isValidSignature",
      "outputs": [
        {
          "name": "",
          "type": "bytes4"
        }
      ],
      "payable": false,
      "stateMutability": "view",
      "type": "function"
    },
    {
      "constant": true,
      "inputs": [],
      "name": "getProtectedTokensLength",
      "outputs": [
        {
          "name": "",
          "type": "uint256"
        }
      ],
      "payable": false,
      "stateMutability": "view",
      "type": "function"
    }
  ],
  "bytecode": "0x6080604052620000176401000000006200001d810204565b6200023b565b6200003064010000000062000125810204565b60408051808201909152601881527f494e49545f414c52454144595f494e495449414c495a45440000000000000000602082015290156200010c576040517f08c379a00000000000000000000000000000000000000000000000000000000081526004018080602001828103825283818151815260200191508051906020019080838360005b83811015620000d0578181015183820152602001620000b6565b50505050905090810190601f168015620000fe5780820380516001836020036101000a031916815260200191505b509250505060405180910390fd5b506200012360001964010000000062000154810204565b565b60006200014f60008051602062004bd08339815191526401000000006200339d6200023382021704565b905090565b6200016764010000000062000125810204565b60408051808201909152601881527f494e49545f414c52454144595f494e495449414c495a454400000000000000006020820152901562000206576040517f08c379a000000000000000000000000000000000000000000000000000000000815260040180806020018281038252838181518152602001915080519060200190808383600083811015620000d0578181015183820152602001620000b6565b506200023060008051602062004bd0833981519152826401000000006200467b6200023782021704565b50565b5490565b9055565b614985806200024b6000396000f3006080604052600436106102185763ffffffff7c01000000000000000000000000000000000000000000000000000000006000350416627bb00381146103a457806301ffc9a7146103cb5780630803fac01461041957806311a5e4091461042e5780631626ba7e146104785780631ce30181146104d6578063206b60f9146104eb57806320c13b0b1461050057806326f06d24146105975780632914b9bd146105ac57806332f0a3b51461062e578063368c3c34146106435780633e4eb7561461065857806342b2d0661461066d57806347e7ef241461068257806348a0c8dd146106a65780634c7ec0b0146106bb57806354842f14146106d3578063578eb50b146106e85780635fa5e4e6146107165780636298e9021461072b5780637e7db6e11461075957806380afdea8146107875780638129fc1c1461079c578063851a3790146107b15780638b3dd749146107c95780639890cdca146107de5780639d4941d8146107f3578063a1658fad14610821578063a479e50814610895578063a83e52b4146108aa578063aae25051146108d8578063ab23c345146108ed578063b03bdb0414610927578063b06c42441461093c578063b4fa653c14610951578063b61d27f614610969578063beabacc8146109a7578063c0774df3146109de578063d4aae0c414610a52578063d948d46814610a67578063de4796ed14610ac0578063e3d670d714610ad5578063fd64eccb14610b03575b610220610b18565b60408051808201909152601481527f494e49545f4e4f545f494e495449414c495a454400000000000000000000000060208201529015156102f9576040517f08c379a00000000000000000000000000000000000000000000000000000000081526004018080602001828103825283818151815260200191508051906020019080838360005b838110156102be5781810151838201526020016102a6565b50505050905090810190601f1680156102eb5780820380516001836020036101000a031916815260200191505b509250505060405180910390fd5b5060408051808201909152601381527f5641554c545f444154415f4e4f4e5f5a45524f0000000000000000000000000060208201523615610396576040517f08c379a0000000000000000000000000000000000000000000000000000000008152600401808060200182810382528381815181526020019150805190602001908083836000838110156102be5781810151838201526020016102a6565b506103a2600034610b42565b005b3480156103b057600080fd5b506103b9610e61565b60408051918252519081900360200190f35b3480156103d757600080fd5b506104057fffffffff0000000000000000000000000000000000000000000000000000000060043516610e85565b604080519115158252519081900360200190f35b34801561042557600080fd5b50610405610b18565b34801561043a57600080fd5b50610443610f20565b604080517fffffffff000000000000000000000000000000000000000000000000000000009092168252519081900360200190f35b34801561048457600080fd5b5060408051602060046024803582810135601f8101859004850286018501909652858552610443958335953695604494919390910191908190840183828082843750949750610f449650505050505050565b3480156104e257600080fd5b50610443610fd0565b3480156104f757600080fd5b506103b9610fd5565b34801561050c57600080fd5b506040805160206004803580820135601f810184900484028501840190955284845261044394369492936024939284019190819084018382808284375050604080516020601f89358b018035918201839004830284018301909452808352979a99988101979196509182019450925082915084018382808284375094975061100a9650505050505050565b3480156105a357600080fd5b506103b9611079565b3480156105b857600080fd5b506040805160206004803580820135601f81018490048402850184019095528484526106059436949293602493928401919081908401838280828437509497506111299650505050505050565b6040805173ffffffffffffffffffffffffffffffffffffffff9092168252519081900360200190f35b34801561063a57600080fd5b50610605611235565b34801561064f57600080fd5b506103b96112d3565b34801561066457600080fd5b506103b96112f7565b34801561067957600080fd5b506103b961131b565b6103a273ffffffffffffffffffffffffffffffffffffffff6004351660243561133f565b3480156106b257600080fd5b506104056113f3565b3480156106c757600080fd5b506103a2600435611423565b3480156106df57600080fd5b506103b961155c565b3480156106f457600080fd5b506103a273ffffffffffffffffffffffffffffffffffffffff60043516611580565b34801561072257600080fd5b506103b9611708565b34801561073757600080fd5b506103a273ffffffffffffffffffffffffffffffffffffffff6004351661172c565b34801561076557600080fd5b5061040573ffffffffffffffffffffffffffffffffffffffff600435166119f7565b34801561079357600080fd5b506103b96119fd565b3480156107a857600080fd5b506103a2611a28565b3480156107bd57600080fd5b50610605600435611ae1565b3480156107d557600080fd5b506103b9611b16565b3480156107ea57600080fd5b50610443611b41565b3480156107ff57600080fd5b506103a273ffffffffffffffffffffffffffffffffffffffff60043516611b65565b34801561082d57600080fd5b50604080516020600460443581810135838102808601850190965280855261040595833573ffffffffffffffffffffffffffffffffffffffff16956024803596369695606495939492019291829185019084908082843750949750611e879650505050505050565b3480156108a157600080fd5b50610605612017565b3480156108b657600080fd5b506103a273ffffffffffffffffffffffffffffffffffffffff600435166120d9565b3480156108e457600080fd5b506106056122de565b3480156108f957600080fd5b506103a26004803573ffffffffffffffffffffffffffffffffffffffff1690602480359081019101356122fa565b34801561093357600080fd5b506103b9612961565b34801561094857600080fd5b506103b9612966565b34801561095d57600080fd5b5061040560043561298a565b34801561097557600080fd5b506103a26004803573ffffffffffffffffffffffffffffffffffffffff1690602480359160443591820191013561299f565b3480156109b357600080fd5b506103a273ffffffffffffffffffffffffffffffffffffffff60043581169060243516604435612bb5565b3480156109ea57600080fd5b5060408051602060046024803582810135601f810185900485028601850190965285855261040595833573ffffffffffffffffffffffffffffffffffffffff16953695604494919390910191908190840183828082843750949750612f609650505050505050565b348015610a5e57600080fd5b50610605612f9d565b348015610a7357600080fd5b506040805160206004803580820135601f81018490048402850184019095528484526103a2943694929360249392840191908190840183828082843750949750612fc89650505050505050565b348015610acc57600080fd5b506104056130a2565b348015610ae157600080fd5b506103b973ffffffffffffffffffffffffffffffffffffffff600435166130d3565b348015610b0f57600080fd5b50610405613127565b600080610b23611b16565b90508015801590610b3b575080610b3861312c565b10155b91505b5090565b610b4a6113f3565b60408051808201909152601581527f5641554c545f4e4f545f4445504f53495441424c4500000000000000000000006020820152901515610be7576040517f08c379a0000000000000000000000000000000000000000000000000000000008152600401808060200182810382528381815181526020019150805190602001908083836000838110156102be5781810151838201526020016102a6565b5060408051808201909152601881527f5641554c545f4445504f5349545f56414c55455f5a45524f0000000000000000602082015260008211610c86576040517f08c379a0000000000000000000000000000000000000000000000000000000008152600401808060200182810382528381815181526020019150805190602001908083836000838110156102be5781810151838201526020016102a6565b5073ffffffffffffffffffffffffffffffffffffffff82161515610d475760408051808201909152601481527f5641554c545f56414c55455f4d49534d415443480000000000000000000000006020820152348214610d41576040517f08c379a0000000000000000000000000000000000000000000000000000000008152600401808060200182810382528381815181526020019150805190602001908083836000838110156102be5781810151838201526020016102a6565b50610e10565b610d6f73ffffffffffffffffffffffffffffffffffffffff831633308463ffffffff61313016565b6040805190810160405280602081526020017f5641554c545f544f4b454e5f5452414e534645525f46524f4d5f524556455254815250901515610e0e576040517f08c379a0000000000000000000000000000000000000000000000000000000008152600401808060200182810382528381815181526020019150805190602001908083836000838110156102be5781810151838201526020016102a6565b505b604080518281529051339173ffffffffffffffffffffffffffffffffffffffff8516917f2790b90165fd3973ad7edde4eca71b4f8808dd4857a2a3a3e8ae5642a5cb196e9181900360200190a35050565b7f6eb2a499556bfa2872f5aa15812b956cc4a71b4d64eb3553f7073c7e41415aaa81565b60007fffffffff0000000000000000000000000000000000000000000000000000000082167ffb855dc9000000000000000000000000000000000000000000000000000000001480610f1857507fffffffff0000000000000000000000000000000000000000000000000000000082167f01ffc9a700000000000000000000000000000000000000000000000000000000145b90505b919050565b7ffb855dc90000000000000000000000000000000000000000000000000000000081565b600082815260208190526040812054819060ff1615610f6e57610f6760016131d1565b9150610fc9565b60015473ffffffffffffffffffffffffffffffffffffffff161515610f9557506000610fbd565b600154610fba90859073ffffffffffffffffffffffffffffffffffffffff1685613206565b90505b610fc6816131d1565b91505b5092915050565b600081565b604080517f5452414e534645525f524f4c45000000000000000000000000000000000000008152905190819003600d01902081565b6000611072836040518082805190602001908083835b6020831061103f5780518252601f199092019160209182019101611020565b6001836020036101000a038019825116818451168082178552505050505050905001915050604051809103902083610f44565b9392505050565b6000611083610b18565b60408051808201909152601481527f494e49545f4e4f545f494e495449414c495a45440000000000000000000000006020820152901515611120576040517f08c379a0000000000000000000000000000000000000000000000000000000008152600401808060200182810382528381815181526020019150805190602001908083836000838110156102be5781810151838201526020016102a6565b50506002545b90565b6000611133612017565b73ffffffffffffffffffffffffffffffffffffffff166304bf2a7f836040518263ffffffff167c01000000000000000000000000000000000000000000000000000000000281526004018080602001828103825283818151815260200191508051906020019080838360005b838110156111b757818101518382015260200161119f565b50505050905090810190601f1680156111e45780820380516001836020036101000a031916815260200191505b5092505050602060405180830381600087803b15801561120357600080fd5b505af1158015611217573d6000803e3d6000fd5b505050506040513d602081101561122d57600080fd5b505192915050565b600061123f612f9d565b73ffffffffffffffffffffffffffffffffffffffff166332f0a3b56040518163ffffffff167c0100000000000000000000000000000000000000000000000000000000028152600401602060405180830381600087803b1580156112a257600080fd5b505af11580156112b6573d6000803e3d6000fd5b505050506040513d60208110156112cc57600080fd5b5051905090565b7fb421f7ad7646747f3051c50c0b8e2377839296cd4973e27f63821d73e390338f81565b7f0a1ad7b87f5846153c6d5a1f761d71c7d0cfd122384f56066cd33239b793369481565b7f71eee93d500f6f065e38b27d242a756466a00a52a1dbcd6b4260f01a8640402a81565b611347610b18565b60408051808201909152601481527f494e49545f4e4f545f494e495449414c495a454400000000000000000000000060208201529015156113e4576040517f08c379a0000000000000000000000000000000000000000000000000000000008152600401808060200182810382528381815181526020019150805190602001908083836000838110156102be5781810151838201526020016102a6565b506113ef8282610b42565b5050565b600061141e7f665fd576fbbe6f247aff98f5c94a561e3f71ec2d3c988d56f12d342396c50cea61339d565b905090565b7f0b29780bb523a130b3b01f231ef49ed2fa2781645591a0b0a44ca98f15a5994c61144d826133a1565b611458338383611e87565b60408051808201909152600f81527f4150505f415554485f4641494c4544000000000000000000000000000000000060208201529015156114f5576040517f08c379a0000000000000000000000000000000000000000000000000000000008152600401808060200182810382528381815181526020019150805190602001908083836000838110156102be5781810151838201526020016102a6565b5060008381526020819052604080822080547fffffffffffffffffffffffffffffffffffffffffffffffffffffffffffffff0016600117905551849133917fb150212e573caa2a0216cf8f273ef996af143fd7b2d35abd92c8105536cac1609190a3505050565b7f23ce341656c3f14df6692eebd4757791e33662b7dcf9970c8308303da5472b7c81565b7f71eee93d500f6f065e38b27d242a756466a00a52a1dbcd6b4260f01a8640402a6115aa826133ac565b6115b5338383611e87565b60408051808201909152600f81527f4150505f415554485f4641494c454400000000000000000000000000000000006020820152901515611652576040517f08c379a0000000000000000000000000000000000000000000000000000000008152600401808060200182810382528381815181526020019150805190602001908083836000838110156102be5781810151838201526020016102a6565b5061165c836133cd565b60408051808201909152601981527f4147454e545f544f4b454e5f4e4f545f50524f5445435445440000000000000060208201529015156116f9576040517f08c379a0000000000000000000000000000000000000000000000000000000008152600401808060200182810382528381815181526020019150805190602001908083836000838110156102be5781810151838201526020016102a6565b5061170383613445565b505050565b7fcebf517aa4440d1d125e0355aae64401211d0848a23c02cc5d29a14822580ba481565b7f6eb2a499556bfa2872f5aa15812b956cc4a71b4d64eb3553f7073c7e41415aaa611756826133ac565b611761338383611e87565b60408051808201909152600f81527f4150505f415554485f4641494c4544000000000000000000000000000000000060208201529015156117fe576040517f08c379a0000000000000000000000000000000000000000000000000000000008152600401808060200182810382528381815181526020019150805190602001908083836000838110156102be5781810151838201526020016102a6565b5060025460408051808201909152601881527f4147454e545f544f4b454e535f4341505f524541434845440000000000000000602082015290600a116118a0576040517f08c379a0000000000000000000000000000000000000000000000000000000008152600401808060200182810382528381815181526020019150805190602001908083836000838110156102be5781810151838201526020016102a6565b506118aa83613570565b60408051808201909152601581527f4147454e545f544f4b454e5f4e4f545f455243323000000000000000000000006020820152901515611947576040517f08c379a0000000000000000000000000000000000000000000000000000000008152600401808060200182810382528381815181526020019150805190602001908083836000838110156102be5781810151838201526020016102a6565b50611951836133cd565b60408051808201909152601d81527f4147454e545f544f4b454e5f414c52454144595f50524f544543544544000000602082015290156119ed576040517f08c379a0000000000000000000000000000000000000000000000000000000008152600401808060200182810382528381815181526020019150805190602001908083836000838110156102be5781810151838201526020016102a6565b506117038361359b565b50600090565b600061141e7fd625496217aa6a3453eecb9c3489dc5a53e6c67b444329ea2b2cbc9ff547639b61339d565b611a30611b16565b60408051808201909152601881527f494e49545f414c52454144595f494e495449414c495a4544000000000000000060208201529015611acc576040517f08c379a0000000000000000000000000000000000000000000000000000000008152600401808060200182810382528381815181526020019150805190602001908083836000838110156102be5781810151838201526020016102a6565b50611ad5613638565b611adf6001613715565b565b6002805482908110611aef57fe5b60009182526020909120015473ffffffffffffffffffffffffffffffffffffffff16905081565b600061141e7febb05b386a8d34882b8711d156f463690983dc47815980fb82aeeff1aa43579e61339d565b7f20c13b0b0000000000000000000000000000000000000000000000000000000081565b6000806000611b73846119f7565b60408051808201909152601281527f5245434f5645525f444953414c4c4f57454400000000000000000000000000006020820152901515611c10576040517f08c379a0000000000000000000000000000000000000000000000000000000008152600401808060200182810382528381815181526020019150805190602001908083836000838110156102be5781810151838201526020016102a6565b50611c19611235565b9250611c248361374c565b60408051808201909152601a81527f5245434f5645525f5641554c545f4e4f545f434f4e54524143540000000000006020820152901515611cc1576040517f08c379a0000000000000000000000000000000000000000000000000000000008152600401808060200182810382528381815181526020019150805190602001908083836000838110156102be5781810151838201526020016102a6565b5073ffffffffffffffffffffffffffffffffffffffff84161515611d2c576040513031925073ffffffffffffffffffffffffffffffffffffffff84169083156108fc029084906000818181858888f19350505050158015611d26573d6000803e3d6000fd5b50611e1c565b5082611d5473ffffffffffffffffffffffffffffffffffffffff82163063ffffffff61377f16565b9150611d7d73ffffffffffffffffffffffffffffffffffffffff8216848463ffffffff6138b816565b60408051808201909152601d81527f5245434f5645525f544f4b454e5f5452414e534645525f4641494c45440000006020820152901515611e1a576040517f08c379a0000000000000000000000000000000000000000000000000000000008152600401808060200182810382528381815181526020019150805190602001908083836000838110156102be5781810151838201526020016102a6565b505b8373ffffffffffffffffffffffffffffffffffffffff168373ffffffffffffffffffffffffffffffffffffffff167f596caf56044b55fb8c4ca640089bbc2b63cae3e978b851f5745cbb7c5b288e02846040518082815260200191505060405180910390a350505050565b600080611e92610b18565b1515611ea1576000915061200f565b611ea9612f9d565b905073ffffffffffffffffffffffffffffffffffffffff81161515611ed1576000915061200f565b8073ffffffffffffffffffffffffffffffffffffffff1663fdef9106863087611ef988613950565b6040517c010000000000000000000000000000000000000000000000000000000063ffffffff871602815273ffffffffffffffffffffffffffffffffffffffff808616600483019081529085166024830152604482018490526080606483019081528351608484015283519192909160a490910190602085019080838360005b83811015611f91578181015183820152602001611f79565b50505050905090810190601f168015611fbe5780820380516001836020036101000a031916815260200191505b5095505050505050602060405180830381600087803b158015611fe057600080fd5b505af1158015611ff4573d6000803e3d6000fd5b505050506040513d602081101561200a57600080fd5b505191505b509392505050565b600080612022612f9d565b604080517fbe00bbd80000000000000000000000000000000000000000000000000000000081527fd6f028ca0e8edb4a8c9757ca4fdccab25fa1e0317da1188108f7d2dee14902fb60048201527fddbcfd564f642ab5627cf68b9b7d374fb4f8a36e941a75d89c87998cef03bd616024820152905173ffffffffffffffffffffffffffffffffffffffff929092169163be00bbd8916044808201926020929091908290030181600087803b15801561120357600080fd5b60007f23ce341656c3f14df6692eebd4757791e33662b7dcf9970c8308303da5472b7c612105836133ac565b612110338383611e87565b60408051808201909152600f81527f4150505f415554485f4641494c4544000000000000000000000000000000000060208201529015156121ad576040517f08c379a0000000000000000000000000000000000000000000000000000000008152600401808060200182810382528381815181526020019150805190602001908083836000838110156102be5781810151838201526020016102a6565b5060408051808201909152601881527f4147454e545f44455349474e415445445f544f5f53454c460000000000000000602082015273ffffffffffffffffffffffffffffffffffffffff8516301415612262576040517f08c379a0000000000000000000000000000000000000000000000000000000008152600401808060200182810382528381815181526020019150805190602001908083836000838110156102be5781810151838201526020016102a6565b506001805473ffffffffffffffffffffffffffffffffffffffff8681167fffffffffffffffffffffffff00000000000000000000000000000000000000008316811790935560405191169450849033907f3ecf54ed9acd859c5ee7f080794267b8f08b65d2446d816cef1efccd6d00d73590600090a450505050565b60015473ffffffffffffffffffffffffffffffffffffffff1681565b60006060806000806000806000807f0a1ad7b87f5846153c6d5a1f761d71c7d0cfd122384f56066cd33239b793369460010261238e8d6123698e8e8080601f0160208091040260200160405190810160405280939291908181526020018383808284375061395a945050505050565b7c01000000000000000000000000000000000000000000000000000000009004613973565b612399338383611e87565b60408051808201909152600f81527f4150505f415554485f4641494c454400000000000000000000000000000000006020820152901515612436576040517f08c379a0000000000000000000000000000000000000000000000000000000008152600401808060200182810382528381815181526020019150805190602001908083836000838110156102be5781810151838201526020016102a6565b50600254604080518281526020808402820101909152909b508b8015612466578160200160208202803883390190505b5099508a604051908082528060200260200182016040528015612493578160200160208202803883390190505b509850600097505b8a8810156125d95760028054899081106124b157fe5b6000918252602091829020015460408051808201909152601681527f4147454e545f5441524745545f50524f544543544544000000000000000000009281019290925273ffffffffffffffffffffffffffffffffffffffff90811698508f16881415612579576040517f08c379a0000000000000000000000000000000000000000000000000000000008152600401808060200182810382528381815181526020019150805190602001908083836000838110156102be5781810151838201526020016102a6565b50868a8981518110151561258957fe5b73ffffffffffffffffffffffffffffffffffffffff9092166020928302909101909101526125b6876130d3565b89898151811015156125c457fe5b6020908102909101015260019097019661249b565b8d73ffffffffffffffffffffffffffffffffffffffff168d8d604051808383808284378201915050925050506000604051808303816000865af191505095503d935060405194503d85016040523d6000863e851561295d5760025460408051808201909152601f81527f4147454e545f50524f5445435445445f544f4b454e535f4d4f444946494544006020820152908c146126d1576040517f08c379a0000000000000000000000000000000000000000000000000000000008152600401808060200182810382528381815181526020019150805190602001908083836000838110156102be5781810151838201526020016102a6565b50600092505b8a8310156128db5789838151811015156126ed57fe5b9060200190602002015173ffffffffffffffffffffffffffffffffffffffff1660028481548110151561271c57fe5b6000918252602091829020015460408051808201909152601f81527f4147454e545f50524f5445435445445f544f4b454e535f4d4f4449464945440092810192909252909173ffffffffffffffffffffffffffffffffffffffff909116146127e0576040517f08c379a0000000000000000000000000000000000000000000000000000000008152600401808060200182810382528381815181526020019150805190602001908083836000838110156102be5781810151838201526020016102a6565b5088838151811015156127ef57fe5b9060200190602002015161283260028581548110151561280b57fe5b60009182526020909120015473ffffffffffffffffffffffffffffffffffffffff166130d3565b60408051808201909152601f81527f4147454e545f50524f5445435445445f42414c414e43455f4c4f57455245440060208201529111156128cf576040517f08c379a0000000000000000000000000000000000000000000000000000000008152600401808060200182810382528381815181526020019150805190602001908083836000838110156102be5781810151838201526020016102a6565b506001909201916126d7565b8d73ffffffffffffffffffffffffffffffffffffffff163373ffffffffffffffffffffffffffffffffffffffff167f47f4287d5285559a03d8affeadc53ef3fca238a63c256c08a22bfd30fd5d33ce8f8f6040518080602001828103825284848281815260200192508082843760405192018290039550909350505050a38385f35b8385fd5b600a81565b7f0b29780bb523a130b3b01f231ef49ed2fa2781645591a0b0a44ca98f15a5994c81565b60006020819052908152604090205460ff1681565b60007fcebf517aa4440d1d125e0355aae64401211d0848a23c02cc5d29a14822580ba4600102612a288686612a0387878080601f0160208091040260200160405190810160405280939291908181526020018383808284375061395a945050505050565b7c01000000000000000000000000000000000000000000000000000000009004613995565b612a33338383611e87565b60408051808201909152600f81527f4150505f415554485f4641494c454400000000000000000000000000000000006020820152901515612ad0576040517f08c379a0000000000000000000000000000000000000000000000000000000008152600401808060200182810382528381815181526020019150805190602001908083836000838110156102be5781810151838201526020016102a6565b508673ffffffffffffffffffffffffffffffffffffffff168686866040518083838082843782019150509250505060006040518083038185875af19250505092508215612b9e578673ffffffffffffffffffffffffffffffffffffffff163373ffffffffffffffffffffffffffffffffffffffff167fc25cfed0b22da6a56f0e5ff784979a0b8623eddf2aee4acd33c2adefb09cbab6888888604051808481526020018060200182810382528484828181526020019250808284376040519201829003965090945050505050a35b6040513d6000823e838015612bb1573d82f35b3d82fd5b604080517f5452414e534645525f524f4c45000000000000000000000000000000000000008152905190819003600d019020612bf28484846139c0565b612bfd338383611e87565b60408051808201909152600f81527f4150505f415554485f4641494c454400000000000000000000000000000000006020820152901515612c9a576040517f08c379a0000000000000000000000000000000000000000000000000000000008152600401808060200182810382528381815181526020019150805190602001908083836000838110156102be5781810151838201526020016102a6565b5060408051808201909152601981527f5641554c545f5452414e534645525f56414c55455f5a45524f00000000000000602082015260008411612d39576040517f08c379a0000000000000000000000000000000000000000000000000000000008152600401808060200182810382528381815181526020019150805190602001908083836000838110156102be5781810151838201526020016102a6565b5073ffffffffffffffffffffffffffffffffffffffff85161515612e2e5760405173ffffffffffffffffffffffffffffffffffffffff85169084156108fc029085906000818181858888f193505050506040805190810160405280601381526020017f5641554c545f53454e445f524556455254454400000000000000000000000000815250901515612e28576040517f08c379a0000000000000000000000000000000000000000000000000000000008152600401808060200182810382528381815181526020019150805190602001908083836000838110156102be5781810151838201526020016102a6565b50612ef4565b612e5573ffffffffffffffffffffffffffffffffffffffff8616858563ffffffff6138b816565b60408051808201909152601d81527f5641554c545f544f4b454e5f5452414e534645525f52455645525445440000006020820152901515612ef2576040517f08c379a0000000000000000000000000000000000000000000000000000000008152600401808060200182810382528381815181526020019150805190602001908083836000838110156102be5781810151838201526020016102a6565b505b8373ffffffffffffffffffffffffffffffffffffffff168573ffffffffffffffffffffffffffffffffffffffff167f239e7f6cdac8fb35a788a46b431b54da87de90b82448a2c294be5e92a6e579af856040518082815260200191505060405180910390a35050505050565b6000611072837fb421f7ad7646747f3051c50c0b8e2377839296cd4973e27f63821d73e390338f612f98612f93866139f9565b613ae1565b611e87565b600061141e7f4172f0f7d2289153072b0a6ca36959e0cbe2efc3afe50fc81636caa96338137b61339d565b606080612fd53384612f60565b60408051808201909152601581527f4147454e545f43414e5f4e4f545f464f525741524400000000000000000000006020820152901515613072576040517f08c379a0000000000000000000000000000000000000000000000000000000008152600401808060200182810382528381815181526020019150805190602001908083836000838110156102be5781810151838201526020016102a6565b5050604080516020808201835260008083528351908152908101909252915061309c838383613b22565b50505050565b60007fffffffffffffffffffffffffffffffffffffffffffffffffffffffffffffffff6130cd611b16565b14905090565b600073ffffffffffffffffffffffffffffffffffffffff821615156130fa57503031610f1b565b61312073ffffffffffffffffffffffffffffffffffffffff83163063ffffffff61377f16565b9050610f1b565b600190565b4390565b6040805173ffffffffffffffffffffffffffffffffffffffff85811660248301528416604482015260648082018490528251808303909101815260849091019091526020810180517bffffffffffffffffffffffffffffffffffffffffffffffffffffffff167f23b872dd000000000000000000000000000000000000000000000000000000001790526000906131c786826141f8565b9695505050505050565b6000816131df576000610f18565b507f20c13b0b00000000000000000000000000000000000000000000000000000000919050565b600080600083516000141561321e5760009250613394565b83600081518110151561322d57fe5b01602001517f0100000000000000000000000000000000000000000000000000000000000000908190048102049150600460ff8316106132705760009250613394565b8160ff16600481111561327f57fe5b9050600181600481111561328f57fe5b14156132a7576132a0868686614246565b9250613394565b60028160048111156132b557fe5b141561336857604080517f19457468657265756d205369676e6564204d6573736167653a0a333200000000602080830191909152603c8083018a905283518084039091018152605c9092019283905281516132a093918291908401908083835b602083106133345780518252601f199092019160209182019101613315565b6001836020036101000a03801982511681845116808217855250505050505090500191505060405180910390208686614246565b600381600481111561337657fe5b141561338f576132a0858761338a8761430e565b61441a565b600092505b50509392505050565b5490565b6060610f1882613ae1565b6060610f188273ffffffffffffffffffffffffffffffffffffffff16613ae1565b6000805b60025481101561343a578273ffffffffffffffffffffffffffffffffffffffff1660028281548110151561340157fe5b60009182526020909120015473ffffffffffffffffffffffffffffffffffffffff161415613432576001915061343f565b6001016133d1565b600091505b50919050565b600280547fffffffffffffffffffffffffffffffffffffffffffffffffffffffffffffffff810190811061347557fe5b60009182526020909120015473ffffffffffffffffffffffffffffffffffffffff1660026134a28361457b565b815481106134ac57fe5b600091825260209091200180547fffffffffffffffffffffffff00000000000000000000000000000000000000001673ffffffffffffffffffffffffffffffffffffffff92909216919091179055600280549061352b907fffffffffffffffffffffffffffffffffffffffffffffffffffffffffffffffff8301614920565b5060405173ffffffffffffffffffffffffffffffffffffffff8216907f3da25279c93c5b22b359bebff8b5ddbfd9b0506be8344b93c9a7dc999459fe0490600090a250565b600061357b8261374c565b151561358957506000610f1b565b613592826130d3565b50600192915050565b6002805460018101825560009182527f405787fa12a823e0f2b7631cc41b3ba8828b3321ca811111fa75cd3aa3bb5ace0180547fffffffffffffffffffffffff00000000000000000000000000000000000000001673ffffffffffffffffffffffffffffffffffffffff841690811790915560405190917ff70a5123a7f334e5dac1d9aa3a6aafbc316712bf2519ffe0d3aa4f7cba52767e91a250565b613640611b16565b60408051808201909152601881527f494e49545f414c52454144595f494e495449414c495a45440000000000000000602082015290156136dc576040517f08c379a0000000000000000000000000000000000000000000000000000000008152600401808060200182810382528381815181526020019150805190602001908083836000838110156102be5781810151838201526020016102a6565b50611adf6136e861312c565b7febb05b386a8d34882b8711d156f463690983dc47815980fb82aeeff1aa43579e9063ffffffff61467b16565b6137457f665fd576fbbe6f247aff98f5c94a561e3f71ec2d3c988d56f12d342396c50cea8263ffffffff61467b16565b50565b5490565b60008073ffffffffffffffffffffffffffffffffffffffff83161515613775576000915061343f565b50506000903b1190565b6040805173ffffffffffffffffffffffffffffffffffffffff83166024808301919091528251808303909101815260449091019091526020810180517bffffffffffffffffffffffffffffffffffffffffffffffffffffffff167f70a0823100000000000000000000000000000000000000000000000000000000179052600090818061380c868461467f565b60408051808201909152601c81527f534146455f4552435f32305f42414c414e43455f524556455254454400000000602082015291935091508215156138ae576040517f08c379a0000000000000000000000000000000000000000000000000000000008152600401808060200182810382528381815181526020019150805190602001908083836000838110156102be5781810151838201526020016102a6565b5095945050505050565b6040805173ffffffffffffffffffffffffffffffffffffffff8416602482015260448082018490528251808303909101815260649091019091526020810180517bffffffffffffffffffffffffffffffffffffffffffffffffffffffff167fa9059cbb0000000000000000000000000000000000000000000000000000000017905260009061394785826141f8565b95945050505050565b8051602002815290565b600060048251101561396b57610f1b565b506020015190565b60606110728373ffffffffffffffffffffffffffffffffffffffff16836146b0565b60606139b88473ffffffffffffffffffffffffffffffffffffffff16848461470b565b949350505050565b60606139b88473ffffffffffffffffffffffffffffffffffffffff168473ffffffffffffffffffffffffffffffffffffffff168461470b565b6000816040516020018082805190602001908083835b60208310613a2e5780518252601f199092019160209182019101613a0f565b6001836020036101000a0380198251168184511680821785525050505050509050019150506040516020818303038152906040526040518082805190602001908083835b60208310613a915780518252601f199092019160209182019101613a72565b5181516020939093036101000a7fffffffffffffffffffffffffffffffffffffffffffffffffffffffffffffffff0180199091169216919091179052604051920182900390912095945050505050565b6040805160018082528183019092526060916020808301908038833901905050905081816000815181101515613b1357fe5b60209081029091010152919050565b6060600080606080613b32610b18565b60408051808201909152601481527f494e49545f4e4f545f494e495449414c495a45440000000000000000000000006020820152901515613bcf576040517f08c379a0000000000000000000000000000000000000000000000000000000008152600401808060200182810382528381815181526020019150805190602001908083836000838110156102be5781810151838201526020016102a6565b50600080613bdb612f9d565b9150613be56119fd565b9050613bf08a611129565b60408051808201909152601b81527f45564d52554e5f4558454355544f525f554e415641494c41424c450000000000602082015290965073ffffffffffffffffffffffffffffffffffffffff87161515613ca6576040517f08c379a0000000000000000000000000000000000000000000000000000000008152600401808060200182810382528381815181526020019150805190602001908083836000838110156102be5781810151838201526020016102a6565b506040516060602482019081528b5160848301528b517f279cea3500000000000000000000000000000000000000000000000000000000975087928d928d928d9282916044820191606481019160a490910190602089019080838360005b83811015613d1c578181015183820152602001613d04565b50505050905090810190601f168015613d495780820380516001836020036101000a031916815260200191505b50848103835286518152865160209182019188019080838360005b83811015613d7c578181015183820152602001613d64565b50505050905090810190601f168015613da95780820380516001836020036101000a031916815260200191505b508481038252855181528551602091820191808801910280838360005b83811015613dde578181015183820152602001613dc6565b505050509050019650505050505050604051602081830303815290604052907bffffffffffffffffffffffffffffffffffffffffffffffffffffffff19166020820180517bffffffffffffffffffffffffffffffffffffffffffffffffffffffff83818316178352505050509350600080855160208701895af46040519350808015613ee357603f3d118015613e815760203d03806020883e8601604052613edd565b7f08c379a000000000000000000000000000000000000000000000000000000000865260206004870152601e60248701527f45564d52554e5f4558454355544f525f494e56414c49445f52455455524e00006044870152606486fd5b50613eec565b3d6000863e3d85fd5b50508573ffffffffffffffffffffffffffffffffffffffff167f5229a5dba83a54ae8cb5b51bdd6de9474cacbe9dd332f5185f3a4f4f2e3f4ad98b8b8660405180806020018060200180602001848103845287818151815260200191508051906020019080838360005b83811015613f6e578181015183820152602001613f56565b50505050905090810190601f168015613f9b5780820380516001836020036101000a031916815260200191505b50848103835286518152865160209182019188019080838360005b83811015613fce578181015183820152602001613fb6565b50505050905090810190601f168015613ffb5780820380516001836020036101000a031916815260200191505b50848103825285518152855160209182019187019080838360005b8381101561402e578181015183820152602001614016565b50505050905090810190601f16801561405b5780820380516001836020036101000a031916815260200191505b50965050505050505060405180910390a28296508173ffffffffffffffffffffffffffffffffffffffff1661408e612f9d565b73ffffffffffffffffffffffffffffffffffffffff16146040805190810160405280601f81526020017f45564d52554e5f50524f5445435445445f53544154455f4d4f44494649454400815250901515614144576040517f08c379a0000000000000000000000000000000000000000000000000000000008152600401808060200182810382528381815181526020019150805190602001908083836000838110156102be5781810151838201526020016102a6565b508061414e6119fd565b60408051808201909152601f81527f45564d52554e5f50524f5445435445445f53544154455f4d4f44494649454400602082015291146141ea576040517f08c379a0000000000000000000000000000000000000000000000000000000008152600401808060200182810382528381815181526020019150805190602001908083836000838110156102be5781810151838201526020016102a6565b505050505050509392505050565b6000806040516020818551602087016000895af1600081111561423c573d801561422957602081146142325761423a565b6001935061423a565b600183511493505b505b5090949350505050565b600080600080600061425786614784565b9350935093509350831561426e5760009450614303565b60408051600080825260208083018085528c905260ff8516838501526060830187905260808301869052925160019360a0808501949193601f19840193928390039091019190865af11580156142c8573d6000803e3d6000fd5b5050506020604051035173ffffffffffffffffffffffffffffffffffffffff168773ffffffffffffffffffffffffffffffffffffffff161494505b505050509392505050565b805160408051808201909152601e81527f53494756414c5f494e56414c49445f4c454e4754485f504f505f42595445000060208201526060919060009081908184116143b6576040517f08c379a0000000000000000000000000000000000000000000000000000000008152600401808060200182810382528381815181526020019150805190602001908083836000838110156102be5781810151838201526020016102a6565b50600183036040519080825280601f01601f1916602001820160405280156143e8578160200160208202803883390190505b5093508351600014156143fa57614412565b60218501915060208401905061441281838651614864565b505050919050565b60408051602481018481526044820192835283516064830152835160009360609385937f1626ba7e000000000000000000000000000000000000000000000000000000009389938993909160849091019060208501908083838b5b8381101561448d578181015183820152602001614475565b50505050905090810190601f1680156144ba5780820380516001836020036101000a031916815260200191505b509350505050604051602081830303815290604052907bffffffffffffffffffffffffffffffffffffffffffffffffffffffff19166020820180517bffffffffffffffffffffffffffffffffffffffffffffffffffffffff8381831617835250505050915061452d86836203d0906148c6565b7fffffffff00000000000000000000000000000000000000000000000000000000167f20c13b0b00000000000000000000000000000000000000000000000000000000149695505050505050565b6000805b6002548110156145e7578273ffffffffffffffffffffffffffffffffffffffff166002828154811015156145af57fe5b60009182526020909120015473ffffffffffffffffffffffffffffffffffffffff1614156145df5780915061343f565b60010161457f565b604080518082018252601981527f4147454e545f544f4b454e5f4e4f545f50524f54454354454400000000000000602080830191825292517f08c379a0000000000000000000000000000000000000000000000000000000008152600481019384528251602482015282519293928392604490920191908083836000838110156102be5781810151838201526020016102a6565b9055565b6000806000806040516020818751602089018a5afa925060008311156146a457805191505b50909590945092505050565b6040805160028082526060808301845292602083019080388339019050509050828160008151811015156146e057fe5b6020908102909101015280518290829060019081106146fb57fe5b6020908102909101015292915050565b604080516003808252608082019092526060916020820183803883390190505090508381600081518110151561473d57fe5b60209081029091010152805183908290600190811061475857fe5b60209081029091010152805182908290600290811061477357fe5b602090810290910101529392505050565b6000806000808451604214151561479e576001935061485d565b8460418151811015156147ad57fe5b9060200101517f010000000000000000000000000000000000000000000000000000000000000090047f0100000000000000000000000000000000000000000000000000000000000000027f0100000000000000000000000000000000000000000000000000000000000000900490506021850151925060418501519150601b8160ff16101561483b57601b015b8060ff16601b1415801561485357508060ff16601c14155b1561485d57600193505b9193509193565b60005b60208210614889578251845260209384019390920191601f1990910190614867565b50905182516020929092036101000a7fffffffffffffffffffffffffffffffffffffffffffffffffffffffffffffffff0180199091169116179052565b60008060008060005a93508584116148de57836148e0565b855b9250600080885160208a018b87fa91508115156148fc57614303565b503d6020811461490b57614303565b604051816000823e5198975050505050505050565b8154818355818111156117035760008381526020902061170391810190830161112691905b80821115610b3e57600081556001016149455600a165627a7a723058205bd9dac2f1a6a69f30699a0e5e61adaf50e4d0ba44a4b7193491a29e58c8d7d70029ebb05b386a8d34882b8711d156f463690983dc47815980fb82aeeff1aa43579e",
  "source": "/*\n * SPDX-License-Identitifer:    GPL-3.0-or-later\n */\n\npragma solidity 0.4.24;\n\nimport \"./SignatureValidator.sol\";\nimport \"./standards/IERC165.sol\";\nimport \"./standards/ERC1271.sol\";\n\nimport \"@aragon/apps-vault/contracts/Vault.sol\";\n\nimport \"@aragon/os/contracts/common/IForwarder.sol\";\n\n\ncontract Agent is IERC165, ERC1271Bytes, IForwarder, IsContract, Vault {\n    /* Hardcoded constants to save gas\n    bytes32 public constant EXECUTE_ROLE = keccak256(\"EXECUTE_ROLE\");\n    bytes32 public constant SAFE_EXECUTE_ROLE = keccak256(\"SAFE_EXECUTE_ROLE\");\n    bytes32 public constant ADD_PROTECTED_TOKEN_ROLE = keccak256(\"ADD_PROTECTED_TOKEN_ROLE\");\n    bytes32 public constant REMOVE_PROTECTED_TOKEN_ROLE = keccak256(\"REMOVE_PROTECTED_TOKEN_ROLE\");\n    bytes32 public constant ADD_PRESIGNED_HASH_ROLE = keccak256(\"ADD_PRESIGNED_HASH_ROLE\");\n    bytes32 public constant DESIGNATE_SIGNER_ROLE = keccak256(\"DESIGNATE_SIGNER_ROLE\");\n    bytes32 public constant RUN_SCRIPT_ROLE = keccak256(\"RUN_SCRIPT_ROLE\");\n    */\n\n    bytes32 public constant EXECUTE_ROLE = 0xcebf517aa4440d1d125e0355aae64401211d0848a23c02cc5d29a14822580ba4;\n    bytes32 public constant SAFE_EXECUTE_ROLE = 0x0a1ad7b87f5846153c6d5a1f761d71c7d0cfd122384f56066cd33239b7933694;\n    bytes32 public constant ADD_PROTECTED_TOKEN_ROLE = 0x6eb2a499556bfa2872f5aa15812b956cc4a71b4d64eb3553f7073c7e41415aaa;\n    bytes32 public constant REMOVE_PROTECTED_TOKEN_ROLE = 0x71eee93d500f6f065e38b27d242a756466a00a52a1dbcd6b4260f01a8640402a;\n    bytes32 public constant ADD_PRESIGNED_HASH_ROLE = 0x0b29780bb523a130b3b01f231ef49ed2fa2781645591a0b0a44ca98f15a5994c;\n    bytes32 public constant DESIGNATE_SIGNER_ROLE = 0x23ce341656c3f14df6692eebd4757791e33662b7dcf9970c8308303da5472b7c;\n    bytes32 public constant RUN_SCRIPT_ROLE = 0xb421f7ad7646747f3051c50c0b8e2377839296cd4973e27f63821d73e390338f;\n\n    uint256 public constant PROTECTED_TOKENS_CAP = 10;\n\n    bytes4 private constant ERC165_INTERFACE_ID = 0x01ffc9a7;\n\n    string private constant ERROR_TARGET_PROTECTED = \"AGENT_TARGET_PROTECTED\";\n    string private constant ERROR_PROTECTED_TOKENS_MODIFIED = \"AGENT_PROTECTED_TOKENS_MODIFIED\";\n    string private constant ERROR_PROTECTED_BALANCE_LOWERED = \"AGENT_PROTECTED_BALANCE_LOWERED\";\n    string private constant ERROR_TOKENS_CAP_REACHED = \"AGENT_TOKENS_CAP_REACHED\";\n    string private constant ERROR_TOKEN_NOT_ERC20 = \"AGENT_TOKEN_NOT_ERC20\";\n    string private constant ERROR_TOKEN_ALREADY_PROTECTED = \"AGENT_TOKEN_ALREADY_PROTECTED\";\n    string private constant ERROR_TOKEN_NOT_PROTECTED = \"AGENT_TOKEN_NOT_PROTECTED\";\n    string private constant ERROR_DESIGNATED_TO_SELF = \"AGENT_DESIGNATED_TO_SELF\";\n    string private constant ERROR_CAN_NOT_FORWARD = \"AGENT_CAN_NOT_FORWARD\";\n\n    mapping (bytes32 => bool) public isPresigned;\n    address public designatedSigner;\n    address[] public protectedTokens;\n\n    event SafeExecute(address indexed sender, address indexed target, bytes data);\n    event Execute(address indexed sender, address indexed target, uint256 ethValue, bytes data);\n    event AddProtectedToken(address indexed token);\n    event RemoveProtectedToken(address indexed token);\n    event PresignHash(address indexed sender, bytes32 indexed hash);\n    event SetDesignatedSigner(address indexed sender, address indexed oldSigner, address indexed newSigner);\n\n    /**\n    * @notice Execute '`@radspec(_target, _data)`' on `_target``_ethValue == 0 ? '' : ' (Sending' + @tokenAmount(0x0000000000000000000000000000000000000000, _ethValue) + ')'`\n    * @param _target Address where the action is being executed\n    * @param _ethValue Amount of ETH from the contract that is sent with the action\n    * @param _data Calldata for the action\n    * @return Exits call frame forwarding the return data of the executed call (either error or success data)\n    */\n    function execute(address _target, uint256 _ethValue, bytes _data)\n        external // This function MUST always be external as the function performs a low level return, exiting the Agent app execution context\n        authP(EXECUTE_ROLE, arr(_target, _ethValue, uint256(_getSig(_data)))) // bytes4 casted as uint256 sets the bytes as the LSBs\n    {\n        bool result = _target.call.value(_ethValue)(_data);\n\n        if (result) {\n            emit Execute(msg.sender, _target, _ethValue, _data);\n        }\n\n        assembly {\n            let ptr := mload(0x40)\n            returndatacopy(ptr, 0, returndatasize)\n\n            // revert instead of invalid() bc if the underlying call failed with invalid() it already wasted gas.\n            // if the call returned error data, forward it\n            switch result case 0 { revert(ptr, returndatasize) }\n            default { return(ptr, returndatasize) }\n        }\n    }\n\n    /**\n    * @notice Execute '`@radspec(_target, _data)`' on `_target` ensuring that protected tokens can't be spent\n    * @param _target Address where the action is being executed\n    * @param _data Calldata for the action\n    * @return Exits call frame forwarding the return data of the executed call (either error or success data)\n    */\n    function safeExecute(address _target, bytes _data)\n        external // This function MUST always be external as the function performs a low level return, exiting the Agent app execution context\n        authP(SAFE_EXECUTE_ROLE, arr(_target, uint256(_getSig(_data)))) // bytes4 casted as uint256 sets the bytes as the LSBs\n    {\n        uint256 protectedTokensLength = protectedTokens.length;\n        address[] memory protectedTokens_ = new address[](protectedTokensLength);\n        uint256[] memory balances = new uint256[](protectedTokensLength);\n\n        for (uint256 i = 0; i < protectedTokensLength; i++) {\n            address token = protectedTokens[i];\n            require(_target != token, ERROR_TARGET_PROTECTED);\n            // we copy the protected tokens array to check whether the storage array has been modified during the underlying call\n            protectedTokens_[i] = token;\n            // we copy the balances to check whether they have been modified during the underlying call\n            balances[i] = balance(token);\n        }\n\n        bool result = _target.call(_data);\n\n        bytes32 ptr;\n        uint256 size;\n        assembly {\n            size := returndatasize\n            ptr := mload(0x40)\n            mstore(0x40, add(ptr, returndatasize))\n            returndatacopy(ptr, 0, returndatasize)\n        }\n\n        if (result) {\n            // if the underlying call has succeeded, we check that the protected tokens\n            // and their balances have not been modified and return the call's return data\n            require(protectedTokens.length == protectedTokensLength, ERROR_PROTECTED_TOKENS_MODIFIED);\n            for (uint256 j = 0; j < protectedTokensLength; j++) {\n                require(protectedTokens[j] == protectedTokens_[j], ERROR_PROTECTED_TOKENS_MODIFIED);\n                require(balance(protectedTokens[j]) >= balances[j], ERROR_PROTECTED_BALANCE_LOWERED);\n            }\n\n            emit SafeExecute(msg.sender, _target, _data);\n\n            assembly {\n                return(ptr, size)\n            }\n        } else {\n            // if the underlying call has failed, we revert and forward returned error data\n            assembly {\n                revert(ptr, size)\n            }\n        }\n    }\n\n    /**\n    * @notice Add `_token.symbol(): string` to the list of protected tokens\n    * @param _token Address of the token to be protected\n    */\n    function addProtectedToken(address _token) external authP(ADD_PROTECTED_TOKEN_ROLE, arr(_token)) {\n        require(protectedTokens.length < PROTECTED_TOKENS_CAP, ERROR_TOKENS_CAP_REACHED);\n        require(_isERC20(_token), ERROR_TOKEN_NOT_ERC20);\n        require(!_tokenIsProtected(_token), ERROR_TOKEN_ALREADY_PROTECTED);\n\n        _addProtectedToken(_token);\n    }\n\n    /**\n    * @notice Remove `_token.symbol(): string` from the list of protected tokens\n    * @param _token Address of the token to be unprotected\n    */\n    function removeProtectedToken(address _token) external authP(REMOVE_PROTECTED_TOKEN_ROLE, arr(_token)) {\n        require(_tokenIsProtected(_token), ERROR_TOKEN_NOT_PROTECTED);\n\n        _removeProtectedToken(_token);\n    }\n\n    /**\n    * @notice Pre-sign hash `_hash`\n    * @param _hash Hash that will be considered signed regardless of the signature checked with 'isValidSignature()'\n    */\n    function presignHash(bytes32 _hash)\n        external\n        authP(ADD_PRESIGNED_HASH_ROLE, arr(_hash))\n    {\n        isPresigned[_hash] = true;\n\n        emit PresignHash(msg.sender, _hash);\n    }\n\n    /**\n    * @notice Set `_designatedSigner` as the designated signer of the app, which will be able to sign messages on behalf of the app\n    * @param _designatedSigner Address that will be able to sign messages on behalf of the app\n    */\n    function setDesignatedSigner(address _designatedSigner)\n        external\n        authP(DESIGNATE_SIGNER_ROLE, arr(_designatedSigner))\n    {\n        // Prevent an infinite loop by setting the app itself as its designated signer.\n        // An undetectable loop can be created by setting a different contract as the\n        // designated signer which calls back into `isValidSignature`.\n        // Given that `isValidSignature` is always called with just 50k gas, the max\n        // damage of the loop is wasting 50k gas.\n        require(_designatedSigner != address(this), ERROR_DESIGNATED_TO_SELF);\n\n        address oldDesignatedSigner = designatedSigner;\n        designatedSigner = _designatedSigner;\n\n        emit SetDesignatedSigner(msg.sender, oldDesignatedSigner, _designatedSigner);\n    }\n\n    // Forwarding fns\n\n    /**\n    * @notice Tells whether the Agent app is a forwarder or not\n    * @dev IForwarder interface conformance\n    * @return Always true\n    */\n    function isForwarder() external pure returns (bool) {\n        return true;\n    }\n\n    /**\n    * @notice Execute the script as the Agent app\n    * @dev IForwarder interface conformance. Forwards any token holder action.\n    * @param _evmScript Script being executed\n    */\n    function forward(bytes _evmScript) public {\n        require(canForward(msg.sender, _evmScript), ERROR_CAN_NOT_FORWARD);\n\n        bytes memory input = \"\"; // no input\n        address[] memory blacklist = new address[](0); // no addr blacklist, can interact with anything\n        runScript(_evmScript, input, blacklist);\n        // We don't need to emit an event here as EVMScriptRunner will emit ScriptResult if successful\n    }\n\n    /**\n    * @notice Tells whether `_sender` can forward actions or not\n    * @dev IForwarder interface conformance\n    * @param _sender Address of the account intending to forward an action\n    * @return True if the given address can run scripts, false otherwise\n    */\n    function canForward(address _sender, bytes _evmScript) public view returns (bool) {\n        // Note that `canPerform()` implicitly does an initialization check itself\n        return canPerform(_sender, RUN_SCRIPT_ROLE, arr(_getScriptACLParam(_evmScript)));\n    }\n\n    // ERC-165 conformance\n\n    /**\n     * @notice Tells whether this contract supports a given ERC-165 interface\n     * @param _interfaceId Interface bytes to check\n     * @return True if this contract supports the interface\n     */\n    function supportsInterface(bytes4 _interfaceId) external pure returns (bool) {\n        return\n            _interfaceId == ERC1271_INTERFACE_ID ||\n            _interfaceId == ERC165_INTERFACE_ID;\n    }\n\n    // ERC-1271 conformance\n\n    /**\n     * @notice Tells whether a signature is seen as valid by this contract through ERC-1271\n     * @param _hash Arbitrary length data signed on the behalf of address (this)\n     * @param _signature Signature byte array associated with _data\n     * @return The ERC-1271 magic value if the signature is valid\n     */\n    function isValidSignature(bytes32 _hash, bytes _signature) public view returns (bytes4) {\n        // Short-circuit in case the hash was presigned. Optimization as performing calls\n        // and ecrecover is more expensive than an SLOAD.\n        if (isPresigned[_hash]) {\n            return returnIsValidSignatureMagicNumber(true);\n        }\n\n        bool isValid;\n        if (designatedSigner == address(0)) {\n            isValid = false;\n        } else {\n            isValid = SignatureValidator.isValidSignature(_hash, designatedSigner, _signature);\n        }\n\n        return returnIsValidSignatureMagicNumber(isValid);\n    }\n\n    // Getters\n\n    function getProtectedTokensLength() public view isInitialized returns (uint256) {\n        return protectedTokens.length;\n    }\n\n    // Internal fns\n\n    function _addProtectedToken(address _token) internal {\n        protectedTokens.push(_token);\n\n        emit AddProtectedToken(_token);\n    }\n\n    function _removeProtectedToken(address _token) internal {\n        protectedTokens[_protectedTokenIndex(_token)] = protectedTokens[protectedTokens.length - 1];\n        protectedTokens.length--;\n\n        emit RemoveProtectedToken(_token);\n    }\n\n    function _isERC20(address _token) internal view returns (bool) {\n        if (!isContract(_token)) {\n            return false;\n        }\n\n        // Throwaway sanity check to make sure the token's `balanceOf()` does not error (for now)\n        balance(_token);\n\n        return true;\n    }\n\n    function _protectedTokenIndex(address _token) internal view returns (uint256) {\n        for (uint i = 0; i < protectedTokens.length; i++) {\n            if (protectedTokens[i] == _token) {\n              return i;\n            }\n        }\n\n        revert(ERROR_TOKEN_NOT_PROTECTED);\n    }\n\n    function _tokenIsProtected(address _token) internal view returns (bool) {\n        for (uint256 i = 0; i < protectedTokens.length; i++) {\n            if (protectedTokens[i] == _token) {\n                return true;\n            }\n        }\n\n        return false;\n    }\n\n    function _getScriptACLParam(bytes _evmScript) internal pure returns (uint256) {\n        return uint256(keccak256(abi.encodePacked(_evmScript)));\n    }\n\n    function _getSig(bytes _data) internal pure returns (bytes4 sig) {\n        if (_data.length < 4) {\n            return;\n        }\n\n        assembly { sig := mload(add(_data, 0x20)) }\n    }\n}\n",
  "sourcePath": "@aragon/apps-agent/contracts/Agent.sol",
  "compiler": {
    "name": "solc",
    "version": "0.4.24+commit.e67f0147.Emscripten.clang"
  },
  "schemaVersion": "3.0.19",
  "updatedAt": "2019-12-18T00:52:30.454Z",
  "devdoc": {
    "methods": {
      "addProtectedToken(address)": {
        "params": {
          "_token": "Address of the token to be protected"
        }
      },
      "allowRecoverability(address)": {
        "details": "Disable recovery escape hatch, as it could be used     maliciously to transfer funds away from the vault"
      },
      "canForward(address,bytes)": {
        "details": "IForwarder interface conformance",
        "params": {
          "_sender": "Address of the account intending to forward an action"
        },
        "return": "True if the given address can run scripts, false otherwise"
      },
      "canPerform(address,bytes32,uint256[])": {
        "details": "Check whether an action can be performed by a sender for a particular role on this app",
        "params": {
          "_params": "Permission params for the role",
          "_role": "Role on this app",
          "_sender": "Sender of the call"
        },
        "return": "Boolean indicating whether the sender has the permissions to perform the action.        Always returns false if the app hasn't been initialized yet."
      },
      "deposit(address,uint256)": {
        "params": {
          "_token": "Address of the token being transferred",
          "_value": "Amount of tokens being transferred"
        }
      },
      "execute(address,uint256,bytes)": {
        "params": {
          "_data": "Calldata for the action",
          "_ethValue": "Amount of ETH from the contract that is sent with the action",
          "_target": "Address where the action is being executed"
        },
        "return": "Exits call frame forwarding the return data of the executed call (either error or success data)"
      },
      "forward(bytes)": {
        "details": "IForwarder interface conformance. Forwards any token holder action.",
        "params": {
          "_evmScript": "Script being executed"
        }
      },
      "getInitializationBlock()": {
        "return": "Block number in which the contract was initialized"
      },
      "getRecoveryVault()": {
        "details": "Get the recovery vault for the app",
        "return": "Recovery vault address for the app"
      },
      "hasInitialized()": {
        "return": "Whether the contract has been initialized by the time of the current block"
      },
      "initialize()": {
        "details": "As an AragonApp it needs to be initialized in order for roles (`auth` and `authP`) to work"
      },
      "isForwarder()": {
        "details": "IForwarder interface conformance",
        "return": "Always true"
      },
      "isValidSignature(bytes,bytes)": {
        "details": "Default behavior of `isValidSignature(bytes,bytes)`, can be overloaded for custom validation",
        "params": {
          "_data": "Arbitrary length data signed on the behalf of address(this)",
          "_signature": "Signature byte array associated with _data"
        },
        "return": "A bytes4 magic value 0x20c13b0b if the signature check passes, 0x00000000 if not    * MUST NOT modify state (using STATICCALL for solc < 0.5, view modifier for solc > 0.5) MUST allow external calls"
      },
      "isValidSignature(bytes32,bytes)": {
        "params": {
          "_hash": "Arbitrary length data signed on the behalf of address (this)",
          "_signature": "Signature byte array associated with _data"
        },
        "return": "The ERC-1271 magic value if the signature is valid"
      },
      "presignHash(bytes32)": {
        "params": {
          "_hash": "Hash that will be considered signed regardless of the signature checked with 'isValidSignature()'"
        }
      },
      "removeProtectedToken(address)": {
        "params": {
          "_token": "Address of the token to be unprotected"
        }
      },
      "safeExecute(address,bytes)": {
        "params": {
          "_data": "Calldata for the action",
          "_target": "Address where the action is being executed"
        },
        "return": "Exits call frame forwarding the return data of the executed call (either error or success data)"
      },
      "setDesignatedSigner(address)": {
        "params": {
          "_designatedSigner": "Address that will be able to sign messages on behalf of the app"
        }
      },
      "supportsInterface(bytes4)": {
        "params": {
          "_interfaceId": "Interface bytes to check"
        },
        "return": "True if this contract supports the interface"
      },
      "transfer(address,address,uint256)": {
        "params": {
          "_to": "Address of the recipient of tokens",
          "_token": "Address of the token being transferred",
          "_value": "Amount of tokens being transferred"
        }
      },
      "transferToVault(address)": {
        "params": {
          "_token": "Token balance to be sent to recovery vault."
        }
      }
    }
  },
  "userdoc": {
    "methods": {
      "addProtectedToken(address)": {
        "notice": "Add `_token.symbol(): string` to the list of protected tokens"
      },
      "canForward(address,bytes)": {
        "notice": "Tells whether `_sender` can forward actions or not"
      },
      "deposit(address,uint256)": {
        "notice": "Deposit `_value` `_token` to the vault"
      },
      "execute(address,uint256,bytes)": {
        "notice": "Execute '`@radspec(_target, _data)`' on `_target``_ethValue == 0 ? '' : ' (Sending' + @tokenAmount(0x0000000000000000000000000000000000000000, _ethValue) + ')'`"
      },
      "forward(bytes)": {
        "notice": "Execute the script as the Agent app"
      },
      "initialize()": {
        "notice": "Initialize Vault app"
      },
      "isForwarder()": {
        "notice": "Tells whether the Agent app is a forwarder or not"
      },
      "isValidSignature(bytes32,bytes)": {
        "notice": "Tells whether a signature is seen as valid by this contract through ERC-1271"
      },
      "presignHash(bytes32)": {
        "notice": "Pre-sign hash `_hash`"
      },
      "removeProtectedToken(address)": {
        "notice": "Remove `_token.symbol(): string` from the list of protected tokens"
      },
      "safeExecute(address,bytes)": {
        "notice": "Execute '`@radspec(_target, _data)`' on `_target` ensuring that protected tokens can't be spent"
      },
      "setDesignatedSigner(address)": {
        "notice": "Set `_designatedSigner` as the designated signer of the app, which will be able to sign messages on behalf of the app"
      },
      "supportsInterface(bytes4)": {
        "notice": "Tells whether this contract supports a given ERC-165 interface"
      },
      "transfer(address,address,uint256)": {
        "notice": "Transfer `_value` `_token` from the Vault to `_to`"
      },
      "transferToVault(address)": {
        "notice": "Send funds to recovery Vault. This contract should never receive funds,        but in case it does, this function allows one to recover them."
      }
    }
  }
}