{
  "contractName": "AppProxyUpgradeable",
  "abi": [
    {
      "constant": true,
      "inputs": [],
      "name": "isDepositable",
      "outputs": [
        {
          "name": "",
          "type": "bool"
        }
      ],
      "payable": false,
      "stateMutability": "view",
      "type": "function"
    },
    {
      "constant": true,
      "inputs": [],
      "name": "appId",
      "outputs": [
        {
          "name": "",
          "type": "bytes32"
        }
      ],
      "payable": false,
      "stateMutability": "view",
      "type": "function"
    },
    {
      "constant": true,
      "inputs": [],
      "name": "kernel",
      "outputs": [
        {
          "name": "",
          "type": "address"
        }
      ],
      "payable": false,
      "stateMutability": "view",
      "type": "function"
    },
    {
      "inputs": [
        {
          "name": "_kernel",
          "type": "address"
        },
        {
          "name": "_appId",
          "type": "bytes32"
        },
        {
          "name": "_initializePayload",
          "type": "bytes"
        }
      ],
      "payable": false,
      "stateMutability": "nonpayable",
      "type": "constructor"
    },
    {
      "payable": true,
      "stateMutability": "payable",
      "type": "fallback"
    },
    {
      "anonymous": false,
      "inputs": [
        {
          "indexed": false,
          "name": "sender",
          "type": "address"
        },
        {
          "indexed": false,
          "name": "value",
          "type": "uint256"
        }
      ],
      "name": "ProxyDeposit",
      "type": "event"
    },
    {
      "constant": true,
      "inputs": [],
      "name": "implementation",
      "outputs": [
        {
          "name": "",
          "type": "address"
        }
      ],
      "payable": false,
      "stateMutability": "view",
      "type": "function"
    },
    {
      "constant": true,
      "inputs": [],
      "name": "proxyType",
      "outputs": [
        {
          "name": "proxyTypeId",
          "type": "uint256"
        }
      ],
      "payable": false,
      "stateMutability": "pure",
      "type": "function"
    }
  ],
  "bytecode": "0x608060405234801561001057600080fd5b506040516106ed3803806106ed8339810160409081528151602083015191830151909201828282600061004b84640100000000610124810204565b61005d8364010000000061014c810204565b61006f83640100000000610183810204565b90506000825111156101185761008d81640100000000610253810204565b151561009857600080fd5b80600160a060020a03168260405180828051906020019080838360005b838110156100cd5781810151838201526020016100b5565b50505050905090810190601f1680156100fa5780820380516001836020036101000a031916815260200191505b50915050600060405180830381855af4915050151561011857600080fd5b505050505050506102b3565b6101496000805160206106cd833981519152826401000000006103d761028082021704565b50565b6101497fd625496217aa6a3453eecb9c3489dc5a53e6c67b444329ea2b2cbc9ff547639b826401000000006103d761028082021704565b6000610196640100000000610284810204565b604080517fbe00bbd80000000000000000000000000000000000000000000000000000000081527ff1f3eb40f5bc1ad1344716ced8b8a0431d840b5783aea1fd01786bc26f35ac0f6004820152602481018590529051600160a060020a03929092169163be00bbd8916044808201926020929091908290030181600087803b15801561022157600080fd5b505af1158015610235573d6000803e3d6000fd5b505050506040513d602081101561024b57600080fd5b505192915050565b600080600160a060020a038316151561026f576000915061027a565b823b90506000811191505b50919050565b9055565b60006102aa6000805160206106cd8339815191526401000000006103cf6102af82021704565b905090565b5490565b61040b806102c26000396000f30060806040526004361061006c5763ffffffff7c01000000000000000000000000000000000000000000000000000000006000350416634555d5c9811461012b57806348a0c8dd146101525780635c60da1b1461017b57806380afdea8146101b9578063d4aae0c4146101ce575b6127107f665fd576fbbe6f247aff98f5c94a561e3f71ec2d3c988d56f12d342396c50cea6000825a10156100e15760003411361583541616156100dc576040513381523460208201527f15eeaa57c7bd188c1388020bcadc2c436ec60d647d36ef5b9eb3c742217ddee1604082a1005b600080fd5b6100e96101e3565b9050610126816000368080601f016020809104026020016040519081016040528093929190818152602001838380828437506101fa945050505050565b505050005b34801561013757600080fd5b5061014061023b565b60408051918252519081900360200190f35b34801561015e57600080fd5b50610167610240565b604080519115158252519081900360200190f35b34801561018757600080fd5b506101906101e3565b6040805173ffffffffffffffffffffffffffffffffffffffff9092168252519081900360200190f35b3480156101c557600080fd5b5061014061026b565b3480156101da57600080fd5b50610190610296565b60006101f56101f061026b565b6102c1565b905090565b600061020583610395565b151561021057600080fd5b612710905060008083516020850186855a03f43d604051816000823e828015610237578282f35b8282fd5b600290565b60006101f57f665fd576fbbe6f247aff98f5c94a561e3f71ec2d3c988d56f12d342396c50cea6103cf565b60006101f57fd625496217aa6a3453eecb9c3489dc5a53e6c67b444329ea2b2cbc9ff547639b6103cf565b60006101f57f4172f0f7d2289153072b0a6ca36959e0cbe2efc3afe50fc81636caa96338137b6103cf565b60006102cb610296565b604080517fbe00bbd80000000000000000000000000000000000000000000000000000000081527ff1f3eb40f5bc1ad1344716ced8b8a0431d840b5783aea1fd01786bc26f35ac0f600482015260248101859052905173ffffffffffffffffffffffffffffffffffffffff929092169163be00bbd8916044808201926020929091908290030181600087803b15801561036357600080fd5b505af1158015610377573d6000803e3d6000fd5b505050506040513d602081101561038d57600080fd5b505192915050565b60008073ffffffffffffffffffffffffffffffffffffffff831615156103be57600091506103c9565b823b90506000811191505b50919050565b5490565b5490565b9055565b90555600a165627a7a7230582037fda6007dae017dcd94ca2548a6ac816a59129ff8c0a1770a132538939f53c200294172f0f7d2289153072b0a6ca36959e0cbe2efc3afe50fc81636caa96338137b",
  "source": "pragma solidity 0.4.24;\n\nimport \"./AppProxyBase.sol\";\n\n\ncontract AppProxyUpgradeable is AppProxyBase {\n    /**\n    * @dev Initialize AppProxyUpgradeable (makes it an upgradeable Aragon app)\n    * @param _kernel Reference to organization kernel for the app\n    * @param _appId Identifier for app\n    * @param _initializePayload Payload for call to be made after setup to initialize\n    */\n    constructor(IKernel _kernel, bytes32 _appId, bytes _initializePayload)\n        AppProxyBase(_kernel, _appId, _initializePayload)\n        public // solium-disable-line visibility-first\n    {\n        // solium-disable-previous-line no-empty-blocks\n    }\n\n    /**\n     * @dev ERC897, the address the proxy would delegate calls to\n     */\n    function implementation() public view returns (address) {\n        return getAppBase(appId());\n    }\n\n    /**\n     * @dev ERC897, whether it is a forwarding (1) or an upgradeable (2) proxy\n     */\n    function proxyType() public pure returns (uint256 proxyTypeId) {\n        return UPGRADEABLE;\n    }\n}\n",
  "sourcePath": "@aragon/os/contracts/apps/AppProxyUpgradeable.sol",
  "compiler": {
    "name": "solc",
    "version": "0.4.24+commit.e67f0147.Emscripten.clang"
  },
  "schemaVersion": "3.0.19",
  "updatedAt": "2019-12-18T00:52:30.657Z",
  "devdoc": {
    "methods": {
      "implementation()": {
        "details": "ERC897, the address the proxy would delegate calls to"
      },
      "proxyType()": {
        "details": "ERC897, whether it is a forwarding (1) or an upgradeable (2) proxy"
      }
    }
  },
  "userdoc": {
    "methods": {}
  }
}