{
  "contractName": "CounterApp",
  "abi": [
    {
      "constant": true,
      "inputs": [],
      "name": "INCREMENT_ROLE",
      "outputs": [
        {
          "name": "",
          "type": "bytes32"
        }
      ],
      "payable": false,
      "stateMutability": "view",
      "type": "function"
    },
    {
      "constant": true,
      "inputs": [],
      "name": "hasInitialized",
      "outputs": [
        {
          "name": "",
          "type": "bool"
        }
      ],
      "payable": false,
      "stateMutability": "view",
      "type": "function"
    },
    {
      "constant": true,
      "inputs": [
        {
          "name": "_script",
          "type": "bytes"
        }
      ],
      "name": "getEVMScriptExecutor",
      "outputs": [
        {
          "name": "",
          "type": "address"
        }
      ],
      "payable": false,
      "stateMutability": "view",
      "type": "function"
    },
    {
      "constant": true,
      "inputs": [],
      "name": "getRecoveryVault",
      "outputs": [
        {
          "name": "",
          "type": "address"
        }
      ],
      "payable": false,
      "stateMutability": "view",
      "type": "function"
    },
    {
      "constant": true,
      "inputs": [],
      "name": "value",
      "outputs": [
        {
          "name": "",
          "type": "uint256"
        }
      ],
      "payable": false,
      "stateMutability": "view",
      "type": "function"
    },
    {
      "constant": true,
      "inputs": [
        {
          "name": "token",
          "type": "address"
        }
      ],
      "name": "allowRecoverability",
      "outputs": [
        {
          "name": "",
          "type": "bool"
        }
      ],
      "payable": false,
      "stateMutability": "view",
      "type": "function"
    },
    {
      "constant": true,
      "inputs": [],
      "name": "appId",
      "outputs": [
        {
          "name": "",
          "type": "bytes32"
        }
      ],
      "payable": false,
      "stateMutability": "view",
      "type": "function"
    },
    {
      "constant": true,
      "inputs": [],
      "name": "getInitializationBlock",
      "outputs": [
        {
          "name": "",
          "type": "uint256"
        }
      ],
      "payable": false,
      "stateMutability": "view",
      "type": "function"
    },
    {
      "constant": false,
      "inputs": [
        {
          "name": "_token",
          "type": "address"
        }
      ],
      "name": "transferToVault",
      "outputs": [],
      "payable": false,
      "stateMutability": "nonpayable",
      "type": "function"
    },
    {
      "constant": true,
      "inputs": [
        {
          "name": "_sender",
          "type": "address"
        },
        {
          "name": "_role",
          "type": "bytes32"
        },
        {
          "name": "_params",
          "type": "uint256[]"
        }
      ],
      "name": "canPerform",
      "outputs": [
        {
          "name": "",
          "type": "bool"
        }
      ],
      "payable": false,
      "stateMutability": "view",
      "type": "function"
    },
    {
      "constant": true,
      "inputs": [],
      "name": "getEVMScriptRegistry",
      "outputs": [
        {
          "name": "",
          "type": "address"
        }
      ],
      "payable": false,
      "stateMutability": "view",
      "type": "function"
    },
    {
      "constant": true,
      "inputs": [],
      "name": "kernel",
      "outputs": [
        {
          "name": "",
          "type": "address"
        }
      ],
      "payable": false,
      "stateMutability": "view",
      "type": "function"
    },
    {
      "constant": true,
      "inputs": [],
      "name": "isPetrified",
      "outputs": [
        {
          "name": "",
          "type": "bool"
        }
      ],
      "payable": false,
      "stateMutability": "view",
      "type": "function"
    },
    {
      "constant": true,
      "inputs": [],
      "name": "DECREMENT_ROLE",
      "outputs": [
        {
          "name": "",
          "type": "bytes32"
        }
      ],
      "payable": false,
      "stateMutability": "view",
      "type": "function"
    },
    {
      "anonymous": false,
      "inputs": [
        {
          "indexed": true,
          "name": "entity",
          "type": "address"
        },
        {
          "indexed": false,
          "name": "step",
          "type": "uint256"
        }
      ],
      "name": "Increment",
      "type": "event"
    },
    {
      "anonymous": false,
      "inputs": [
        {
          "indexed": true,
          "name": "entity",
          "type": "address"
        },
        {
          "indexed": false,
          "name": "step",
          "type": "uint256"
        }
      ],
      "name": "Decrement",
      "type": "event"
    },
    {
      "anonymous": false,
      "inputs": [
        {
          "indexed": true,
          "name": "executor",
          "type": "address"
        },
        {
          "indexed": false,
          "name": "script",
          "type": "bytes"
        },
        {
          "indexed": false,
          "name": "input",
          "type": "bytes"
        },
        {
          "indexed": false,
          "name": "returnData",
          "type": "bytes"
        }
      ],
      "name": "ScriptResult",
      "type": "event"
    },
    {
      "anonymous": false,
      "inputs": [
        {
          "indexed": true,
          "name": "vault",
          "type": "address"
        },
        {
          "indexed": true,
          "name": "token",
          "type": "address"
        },
        {
          "indexed": false,
          "name": "amount",
          "type": "uint256"
        }
      ],
      "name": "RecoverToVault",
      "type": "event"
    },
    {
      "constant": false,
      "inputs": [],
      "name": "initialize",
      "outputs": [],
      "payable": false,
      "stateMutability": "nonpayable",
      "type": "function"
    },
    {
      "constant": false,
      "inputs": [
        {
          "name": "step",
          "type": "uint256"
        }
      ],
      "name": "increment",
      "outputs": [],
      "payable": false,
      "stateMutability": "nonpayable",
      "type": "function"
    },
    {
      "constant": false,
      "inputs": [
        {
          "name": "step",
          "type": "uint256"
        }
      ],
      "name": "decrement",
      "outputs": [],
      "payable": false,
      "stateMutability": "nonpayable",
      "type": "function"
    }
  ],
  "bytecode": "0x6080604052620000176401000000006200001d810204565b6200023b565b6200003064010000000062000125810204565b60408051808201909152601881527f494e49545f414c52454144595f494e495449414c495a45440000000000000000602082015290156200010c576040517f08c379a00000000000000000000000000000000000000000000000000000000081526004018080602001828103825283818151815260200191508051906020019080838360005b83811015620000d0578181015183820152602001620000b6565b50505050905090810190601f168015620000fe5780820380516001836020036101000a031916815260200191505b509250505060405180910390fd5b506200012360001964010000000062000154810204565b565b60006200014f600080516020620016a5833981519152640100000000620010b16200023382021704565b905090565b6200016764010000000062000125810204565b60408051808201909152601881527f494e49545f414c52454144595f494e495449414c495a454400000000000000006020820152901562000206576040517f08c379a000000000000000000000000000000000000000000000000000000000815260040180806020018281038252838181518152602001915080519060200190808383600083811015620000d0578181015183820152602001620000b6565b5062000230600080516020620016a583398151915282640100000000620013ab6200023782021704565b50565b5490565b9055565b61145a806200024b6000396000f3006080604052600436106100f05763ffffffff7c0100000000000000000000000000000000000000000000000000000000600035041663029bb7e381146100f55780630803fac01461011c5780632914b9bd1461014557806332f0a3b5146101c75780633a9ebefd146101dc5780633fa4f245146101f65780637cf5dab01461020b5780637e7db6e11461022357806380afdea8146102515780638129fc1c146102665780638b3dd7491461027b5780639d4941d814610290578063a1658fad146102be578063a479e50814610332578063d4aae0c414610347578063de4796ed1461035c578063e999688f14610371575b600080fd5b34801561010157600080fd5b5061010a610386565b60408051918252519081900360200190f35b34801561012857600080fd5b506101316103bb565b604080519115158252519081900360200190f35b34801561015157600080fd5b506040805160206004803580820135601f810184900484028501840190955284845261019e9436949293602493928401919081908401838280828437509497506103e49650505050505050565b6040805173ffffffffffffffffffffffffffffffffffffffff9092168252519081900360200190f35b3480156101d357600080fd5b5061019e6104f0565b3480156101e857600080fd5b506101f460043561058e565b005b34801561020257600080fd5b5061010a610707565b34801561021757600080fd5b506101f460043561070d565b34801561022f57600080fd5b5061013173ffffffffffffffffffffffffffffffffffffffff60043516610848565b34801561025d57600080fd5b5061010a61084e565b34801561027257600080fd5b506101f461087e565b34801561028757600080fd5b5061010a61092d565b34801561029c57600080fd5b506101f473ffffffffffffffffffffffffffffffffffffffff60043516610958565b3480156102ca57600080fd5b50604080516020600460443581810135838102808601850190965280855261013195833573ffffffffffffffffffffffffffffffffffffffff16956024803596369695606495939492019291829185019084908082843750949750610c7a9650505050505050565b34801561033e57600080fd5b5061019e610e0a565b34801561035357600080fd5b5061019e610ecc565b34801561036857600080fd5b50610131610ef7565b34801561037d57600080fd5b5061010a610f28565b604080517f494e4352454d454e545f524f4c450000000000000000000000000000000000008152905190819003600e01902081565b6000806103c661092d565b905080158015906103de5750806103db610f5d565b10155b91505090565b60006103ee610e0a565b73ffffffffffffffffffffffffffffffffffffffff166304bf2a7f836040518263ffffffff167c01000000000000000000000000000000000000000000000000000000000281526004018080602001828103825283818151815260200191508051906020019080838360005b8381101561047257818101518382015260200161045a565b50505050905090810190601f16801561049f5780820380516001836020036101000a031916815260200191505b5092505050602060405180830381600087803b1580156104be57600080fd5b505af11580156104d2573d6000803e3d6000fd5b505050506040513d60208110156104e857600080fd5b505192915050565b60006104fa610ecc565b73ffffffffffffffffffffffffffffffffffffffff166332f0a3b56040518163ffffffff167c0100000000000000000000000000000000000000000000000000000000028152600401602060405180830381600087803b15801561055d57600080fd5b505af1158015610571573d6000803e3d6000fd5b505050506040513d602081101561058757600080fd5b5051905090565b604080517f44454352454d454e545f524f4c450000000000000000000000000000000000008152815190819003600e018120600080835260208301909352916105dd9133918491905b50610c7a565b60408051808201909152600f81527f4150505f415554485f4641494c4544000000000000000000000000000000000060208201529015156106b6576040517f08c379a00000000000000000000000000000000000000000000000000000000081526004018080602001828103825283818151815260200191508051906020019080838360005b8381101561067b578181015183820152602001610663565b50505050905090810190601f1680156106a85780820380516001836020036101000a031916815260200191505b509250505060405180910390fd5b506000546106ca908363ffffffff610f6116565b60005560408051838152905133917f6b7e3c491cf1853ed43c9cc473d0dbfa8a17d1c836321655f35b48cf00faee03919081900360200190a25050565b60005481565b604080517f494e4352454d454e545f524f4c450000000000000000000000000000000000008152815190819003600e0181206000808352602083019093529161075a9133918491906105d7565b60408051808201909152600f81527f4150505f415554485f4641494c4544000000000000000000000000000000000060208201529015156107f7576040517f08c379a00000000000000000000000000000000000000000000000000000000081526004018080602001828103825283818151815260200191508051906020019080838360008381101561067b578181015183820152602001610663565b5060005461080b908363ffffffff61100c16565b60005560408051838152905133917fb182275171042022ff972a26edbd0171bccc74463bd22e56dbbeba4e93b7a668919081900360200190a25050565b50600190565b60006108797fd625496217aa6a3453eecb9c3489dc5a53e6c67b444329ea2b2cbc9ff547639b6110b1565b905090565b61088661092d565b60408051808201909152601881527f494e49545f414c52454144595f494e495449414c495a4544000000000000000060208201529015610922576040517f08c379a00000000000000000000000000000000000000000000000000000000081526004018080602001828103825283818151815260200191508051906020019080838360008381101561067b578181015183820152602001610663565b5061092b6110b5565b565b60006108797febb05b386a8d34882b8711d156f463690983dc47815980fb82aeeff1aa43579e6110b1565b600080600061096684610848565b60408051808201909152601281527f5245434f5645525f444953414c4c4f57454400000000000000000000000000006020820152901515610a03576040517f08c379a00000000000000000000000000000000000000000000000000000000081526004018080602001828103825283818151815260200191508051906020019080838360008381101561067b578181015183820152602001610663565b50610a0c6104f0565b9250610a1783611196565b60408051808201909152601a81527f5245434f5645525f5641554c545f4e4f545f434f4e54524143540000000000006020820152901515610ab4576040517f08c379a00000000000000000000000000000000000000000000000000000000081526004018080602001828103825283818151815260200191508051906020019080838360008381101561067b578181015183820152602001610663565b5073ffffffffffffffffffffffffffffffffffffffff84161515610b1f576040513031925073ffffffffffffffffffffffffffffffffffffffff84169083156108fc029084906000818181858888f19350505050158015610b19573d6000803e3d6000fd5b50610c0f565b5082610b4773ffffffffffffffffffffffffffffffffffffffff82163063ffffffff6111d016565b9150610b7073ffffffffffffffffffffffffffffffffffffffff8216848463ffffffff61130916565b60408051808201909152601d81527f5245434f5645525f544f4b454e5f5452414e534645525f4641494c45440000006020820152901515610c0d576040517f08c379a00000000000000000000000000000000000000000000000000000000081526004018080602001828103825283818151815260200191508051906020019080838360008381101561067b578181015183820152602001610663565b505b8373ffffffffffffffffffffffffffffffffffffffff168373ffffffffffffffffffffffffffffffffffffffff167f596caf56044b55fb8c4ca640089bbc2b63cae3e978b851f5745cbb7c5b288e02846040518082815260200191505060405180910390a350505050565b600080610c856103bb565b1515610c945760009150610e02565b610c9c610ecc565b905073ffffffffffffffffffffffffffffffffffffffff81161515610cc45760009150610e02565b8073ffffffffffffffffffffffffffffffffffffffff1663fdef9106863087610cec886113a1565b6040517c010000000000000000000000000000000000000000000000000000000063ffffffff871602815273ffffffffffffffffffffffffffffffffffffffff808616600483019081529085166024830152604482018490526080606483019081528351608484015283519192909160a490910190602085019080838360005b83811015610d84578181015183820152602001610d6c565b50505050905090810190601f168015610db15780820380516001836020036101000a031916815260200191505b5095505050505050602060405180830381600087803b158015610dd357600080fd5b505af1158015610de7573d6000803e3d6000fd5b505050506040513d6020811015610dfd57600080fd5b505191505b509392505050565b600080610e15610ecc565b604080517fbe00bbd80000000000000000000000000000000000000000000000000000000081527fd6f028ca0e8edb4a8c9757ca4fdccab25fa1e0317da1188108f7d2dee14902fb60048201527fddbcfd564f642ab5627cf68b9b7d374fb4f8a36e941a75d89c87998cef03bd616024820152905173ffffffffffffffffffffffffffffffffffffffff929092169163be00bbd8916044808201926020929091908290030181600087803b1580156104be57600080fd5b60006108797f4172f0f7d2289153072b0a6ca36959e0cbe2efc3afe50fc81636caa96338137b6110b1565b60007fffffffffffffffffffffffffffffffffffffffffffffffffffffffffffffffff610f2261092d565b14905090565b604080517f44454352454d454e545f524f4c450000000000000000000000000000000000008152905190819003600e01902081565b4390565b60408051808201909152601281527f4d4154485f5355425f554e444552464c4f5700000000000000000000000000006020820152600090819084841115611004576040517f08c379a00000000000000000000000000000000000000000000000000000000081526004018080602001828103825283818151815260200191508051906020019080838360008381101561067b578181015183820152602001610663565b505050900390565b60408051808201909152601181527f4d4154485f4144445f4f564552464c4f5700000000000000000000000000000060208201526000908383019084821015610e02576040517f08c379a00000000000000000000000000000000000000000000000000000000081526004018080602001828103825283818151815260200191508051906020019080838360008381101561067b578181015183820152602001610663565b5490565b6110bd61092d565b60408051808201909152601881527f494e49545f414c52454144595f494e495449414c495a4544000000000000000060208201529015611159576040517f08c379a00000000000000000000000000000000000000000000000000000000081526004018080602001828103825283818151815260200191508051906020019080838360008381101561067b578181015183820152602001610663565b5061092b611165610f5d565b7febb05b386a8d34882b8711d156f463690983dc47815980fb82aeeff1aa43579e9063ffffffff6113ab16565b5490565b60008073ffffffffffffffffffffffffffffffffffffffff831615156111bf57600091506111ca565b823b90506000811191505b50919050565b6040805173ffffffffffffffffffffffffffffffffffffffff83166024808301919091528251808303909101815260449091019091526020810180517bffffffffffffffffffffffffffffffffffffffffffffffffffffffff167f70a0823100000000000000000000000000000000000000000000000000000000179052600090818061125d86846113af565b60408051808201909152601c81527f534146455f4552435f32305f42414c414e43455f524556455254454400000000602082015291935091508215156112ff576040517f08c379a00000000000000000000000000000000000000000000000000000000081526004018080602001828103825283818151815260200191508051906020019080838360008381101561067b578181015183820152602001610663565b5095945050505050565b6040805173ffffffffffffffffffffffffffffffffffffffff8416602482015260448082018490528251808303909101815260649091019091526020810180517bffffffffffffffffffffffffffffffffffffffffffffffffffffffff167fa9059cbb0000000000000000000000000000000000000000000000000000000017905260009061139885826113e0565b95945050505050565b8051602002815290565b9055565b6000806000806040516020818751602089018a5afa925060008311156113d457805191505b50909590945092505050565b6000806040516020818551602087016000895af16000811115611424573d8015611411576020811461141a57611422565b60019350611422565b600183511493505b505b50909493505050505600a165627a7a7230582051692f01ea52193e1afc94e4d5dab462b02ed68ff02d598a2624276ecd35fd2e0029ebb05b386a8d34882b8711d156f463690983dc47815980fb82aeeff1aa43579e",
  "source": "pragma solidity ^0.4.24;\n\nimport \"@aragon/os/contracts/apps/AragonApp.sol\";\nimport \"@aragon/os/contracts/lib/math/SafeMath.sol\";\n\n\ncontract CounterApp is AragonApp {\n    using SafeMath for uint256;\n\n    /// Events\n    event Increment(address indexed entity, uint256 step);\n    event Decrement(address indexed entity, uint256 step);\n\n    /// State\n    uint256 public value;\n\n    /// ACL\n    bytes32 constant public INCREMENT_ROLE = keccak256(\"INCREMENT_ROLE\");\n    bytes32 constant public DECREMENT_ROLE = keccak256(\"DECREMENT_ROLE\");\n\n    function initialize() public onlyInit {\n        initialized();\n    }\n\n    /**\n     * @notice Increment the counter by `step`\n     * @param step Amount to increment by\n     */\n    function increment(uint256 step) external auth(INCREMENT_ROLE) {\n        value = value.add(step);\n        emit Increment(msg.sender, step);\n    }\n\n    /**\n     * @notice Decrement the counter by `step`\n     * @param step Amount to decrement by\n     */\n    function decrement(uint256 step) external auth(DECREMENT_ROLE) {\n        value = value.sub(step);\n        emit Decrement(msg.sender, step);\n    }\n}\n",
  "sourcePath": "/Users/gabi/code/Aragon/aragon-cli/packages/cli/test/mock/contracts/CounterApp.sol",
  "compiler": {
    "name": "solc",
    "version": "0.4.24+commit.e67f0147.Emscripten.clang"
  },
  "schemaVersion": "3.0.19",
  "updatedAt": "2019-12-18T00:52:30.447Z",
  "devdoc": {
    "methods": {
      "allowRecoverability(address)": {
        "details": "By default deriving from AragonApp makes it recoverable",
        "params": {
          "token": "Token address that would be recovered"
        },
        "return": "bool whether the app allows the recovery"
      },
      "canPerform(address,bytes32,uint256[])": {
        "details": "Check whether an action can be performed by a sender for a particular role on this app",
        "params": {
          "_params": "Permission params for the role",
          "_role": "Role on this app",
          "_sender": "Sender of the call"
        },
        "return": "Boolean indicating whether the sender has the permissions to perform the action.        Always returns false if the app hasn't been initialized yet."
      },
      "decrement(uint256)": {
        "params": {
          "step": "Amount to decrement by"
        }
      },
      "getInitializationBlock()": {
        "return": "Block number in which the contract was initialized"
      },
      "getRecoveryVault()": {
        "details": "Get the recovery vault for the app",
        "return": "Recovery vault address for the app"
      },
      "hasInitialized()": {
        "return": "Whether the contract has been initialized by the time of the current block"
      },
      "increment(uint256)": {
        "params": {
          "step": "Amount to increment by"
        }
      },
      "transferToVault(address)": {
        "params": {
          "_token": "Token balance to be sent to recovery vault."
        }
      }
    }
  },
  "userdoc": {
    "methods": {
      "decrement(uint256)": {
        "notice": "Decrement the counter by `step`"
      },
      "increment(uint256)": {
        "notice": "Increment the counter by `step`"
      },
      "transferToVault(address)": {
        "notice": "Send funds to recovery Vault. This contract should never receive funds,        but in case it does, this function allows one to recover them."
      }
    }
  }
}