{
  "contractName": "Template",
  "abi": [
    {
      "inputs": [
        {
          "name": "_daoFactory",
          "type": "address"
        },
        {
          "name": "_ens",
          "type": "address"
        },
        {
          "name": "_miniMeFactory",
          "type": "address"
        },
        {
          "name": "_aragonID",
          "type": "address"
        }
      ],
      "payable": false,
      "stateMutability": "nonpayable",
      "type": "constructor"
    },
    {
      "anonymous": false,
      "inputs": [
        {
          "indexed": false,
          "name": "dao",
          "type": "address"
        }
      ],
      "name": "DeployDao",
      "type": "event"
    },
    {
      "anonymous": false,
      "inputs": [
        {
          "indexed": false,
          "name": "dao",
          "type": "address"
        }
      ],
      "name": "SetupDao",
      "type": "event"
    },
    {
      "anonymous": false,
      "inputs": [
        {
          "indexed": false,
          "name": "token",
          "type": "address"
        }
      ],
      "name": "DeployToken",
      "type": "event"
    },
    {
      "anonymous": false,
      "inputs": [
        {
          "indexed": false,
          "name": "appProxy",
          "type": "address"
        },
        {
          "indexed": false,
          "name": "appId",
          "type": "bytes32"
        }
      ],
      "name": "InstalledApp",
      "type": "event"
    },
    {
      "constant": false,
      "inputs": [
        {
          "name": "_tokenName",
          "type": "string"
        },
        {
          "name": "_tokenSymbol",
          "type": "string"
        },
        {
          "name": "_holders",
          "type": "address[]"
        },
        {
          "name": "_stakes",
          "type": "uint256[]"
        },
        {
          "name": "_votingSettings",
          "type": "uint64[3]"
        }
      ],
      "name": "newTokenAndInstance",
      "outputs": [],
      "payable": false,
      "stateMutability": "nonpayable",
      "type": "function"
    },
    {
      "constant": false,
      "inputs": [
        {
          "name": "_name",
          "type": "string"
        },
        {
          "name": "_symbol",
          "type": "string"
        }
      ],
      "name": "newToken",
      "outputs": [
        {
          "name": "",
          "type": "address"
        }
      ],
      "payable": false,
      "stateMutability": "nonpayable",
      "type": "function"
    },
    {
      "constant": false,
      "inputs": [
        {
          "name": "_holders",
          "type": "address[]"
        },
        {
          "name": "_stakes",
          "type": "uint256[]"
        },
        {
          "name": "_votingSettings",
          "type": "uint64[3]"
        }
      ],
      "name": "newInstance",
      "outputs": [],
      "payable": false,
      "stateMutability": "nonpayable",
      "type": "function"
    }
  ],
  "bytecode": "0x60806040523480156200001157600080fd5b5060405160808062002cb2833981016040908152815160208301519183015160609093015190929083838383620000518364010000000062000261810204565b60408051808201909152601981527f54454d504c4154455f454e535f4e4f545f434f4e54524143540000000000000060208201529015156200012e576040517f08c379a00000000000000000000000000000000000000000000000000000000081526004018080602001828103825283818151815260200191508051906020019080838360005b83811015620000f2578181015183820152602001620000d8565b50505050905090810190601f168015620001205780820380516001836020036101000a031916815260200191505b509250505060405180910390fd5b50620001438464010000000062000261810204565b60408051808201909152601d81527f54454d504c4154455f44414f5f4641435f4e4f545f434f4e54524143540000006020820152901515620001e3576040517f08c379a000000000000000000000000000000000000000000000000000000000815260040180806020018281038252838181518152602001915080519060200190808383600083811015620000f2578181015183820152602001620000d8565b5060008054600160a060020a0319908116600160a060020a03958616179091556003805482169285169290921790915560018054821694841694909417909355600280549093169116179055620002438164010000000062000290810204565b620002578264010000000062000348810204565b50505050620003fe565b600080600160a060020a03831615156200027f57600091506200028a565b823b90506000811191505b50919050565b620002a48164010000000062000261810204565b60408051808201909152601f81527f54454d504c4154455f415241474f4e5f49445f4e4f545f434f4e545241435400602082015290151562000344576040517f08c379a000000000000000000000000000000000000000000000000000000000815260040180806020018281038252838181518152602001915080519060200190808383600083811015620000f2578181015183820152602001620000d8565b5050565b6200035c8164010000000062000261810204565b6040805190810160405280602081526020017f54454d504c4154455f4d494e494d455f4641435f4e4f545f434f4e545241435481525090151562000344576040517f08c379a000000000000000000000000000000000000000000000000000000000815260040180806020018281038252838181518152602001915080519060200190808383600083811015620000f2578181015183820152602001620000d8565b6128a4806200040e6000396000f3006080604052600436106100565763ffffffff7c01000000000000000000000000000000000000000000000000000000006000350416634629ffea811461005b5780639bc31d671461011b578063c5047b1914610163575b600080fd5b34801561006757600080fd5b506040805160206004803580820135601f81018490048402850184019095528484526100f294369492936024939284019190819084018382808284375050604080516020601f89358b018035918201839004830284018301909452808352979a9998810197919650918201945092508291508401838280828437509497506102179650505050505050565b6040805173ffffffffffffffffffffffffffffffffffffffff9092168252519081900360200190f35b34801561012757600080fd5b5061016160246004803582810192908201359181358083019290820135916044358083019290820135916064359182019101356084610239565b005b34801561016f57600080fd5b506040805160206004803580820135838102808601850190965280855261016195369593946024949385019291829185019084908082843750506040805187358901803560208181028481018201909552818452989b9a99890198929750908201955093508392508501908490808284375050604080516060818101909252959897968181019695509350600392508491508390808284375093965061032c95505050505050565b60008061022684846012610374565b90506102328133610652565b9392505050565b6102a089898080601f0160208091040260200160405190810160405280939291908181526020018383808284375050604080516020601f8f018190048102820181019092528d815294508d93508c9250829150840183828082843750610217945050505050565b506103218585808060200260200160405190810160405280939291908181526020018383602002808284375050604080516020808b0282810182019093528a82529095508a945089935083925085019084908082843750506040805160608181019092529450889350600392508491508390808284375061032c9350505050565b505050505050505050565b600080600061033c8686866106a7565b610344610824565b925092506103558383888888610a4c565b9050610362838383610a9d565b61036c8382610ab6565b505050505050565b6002546040805180820190915260208082527f54454d504c4154455f4d494e494d455f4641435f4e4f545f50524f56494445449082015260009182919073ffffffffffffffffffffffffffffffffffffffff16151561046b576040517f08c379a00000000000000000000000000000000000000000000000000000000081526004018080602001828103825283818151815260200191508051906020019080838360005b83811015610430578181015183820152602001610418565b50505050905090810190601f16801561045d5780820380516001836020036101000a031916815260200191505b509250505060405180910390fd5b506002546040517f5b7b72c10000000000000000000000000000000000000000000000000000000081526000600482018181526024830182905260ff87166064840152600160a4840181905260c0604485019081528a5160c48601528a5173ffffffffffffffffffffffffffffffffffffffff90961695635b7b72c19585948d948c948e9491939091608482019160e4019060208901908083838d5b8381101561051f578181015183820152602001610507565b50505050905090810190601f16801561054c5780820380516001836020036101000a031916815260200191505b50838103825285518152855160209182019187019080838360005b8381101561057f578181015183820152602001610567565b50505050905090810190601f1680156105ac5780820380516001836020036101000a031916815260200191505b5098505050505050505050602060405180830381600087803b1580156105d157600080fd5b505af11580156105e5573d6000803e3d6000fd5b505050506040513d60208110156105fb57600080fd5b50516040805173ffffffffffffffffffffffffffffffffffffffff8316815290519192507fd18525bc6595a90cc21e9fbd517ada6fc07a7e87b7d2cdb6ee9284c450ebffa4919081900360200190a1949350505050565b73ffffffffffffffffffffffffffffffffffffffff90811660009081526004602052604090208054919092167fffffffffffffffffffffffff0000000000000000000000000000000000000000909116179055565b825160408051808201909152601681527f54454d504c4154455f454d5054595f484f4c4445525300000000000000000000602082015290600010610747576040517f08c379a000000000000000000000000000000000000000000000000000000000815260040180806020018281038252838181518152602001915080519060200190808383600083811015610430578181015183820152602001610418565b508151835160408051808201909152601f81527f54454d504c4154455f4241445f484f4c444552535f5354414b45535f4c454e00602082015291146107e8576040517f08c379a000000000000000000000000000000000000000000000000000000000815260040180806020018281038252838181518152602001915080519060200190808383600083811015610430578181015183820152602001610418565b5060408051808201909152601a81527f54454d504c4154455f4241445f564f54455f53455454494e475300000000000060208201525b50505050565b600154604080517f216874440000000000000000000000000000000000000000000000000000000081523060048201529051600092839273ffffffffffffffffffffffffffffffffffffffff9091169163216874449160248082019260209290919082900301818787803b15801561089b57600080fd5b505af11580156108af573d6000803e3d6000fd5b505050506040513d60208110156108c557600080fd5b50516040805173ffffffffffffffffffffffffffffffffffffffff8316815290519193507f0b13a9ab90735191cd544fd95ba68d1385144561cbdeb8acb8035de9a86432f5919081900360200190a18173ffffffffffffffffffffffffffffffffffffffff1663de2873596040518163ffffffff167c0100000000000000000000000000000000000000000000000000000000028152600401602060405180830381600087803b15801561097857600080fd5b505af115801561098c573d6000803e3d6000fd5b505050506040513d60208110156109a257600080fd5b5051604080517f8ea8dc9d0000000000000000000000000000000000000000000000000000000081529051919250610a48918391859173ffffffffffffffffffffffffffffffffffffffff831691638ea8dc9d9160048083019260209291908290030181600087803b158015610a1757600080fd5b505af1158015610a2b573d6000803e3d6000fd5b505050506040513d6020811015610a4157600080fd5b5051610ac5565b9091565b600080600080610a5b33610b6a565b9250610a6b898460016000610c8b565b9150610a78898487610e0f565b9050610a8688838989610e35565b610a91888284611043565b98975050505050505050565b6000610aa88461106c565b905061081e838284856111f9565b610ac18282836114b1565b5050565b604080517fbe038478000000000000000000000000000000000000000000000000000000008152306004820181905273ffffffffffffffffffffffffffffffffffffffff858116602484015260448301859052606483019190915291519185169163be0384789160848082019260009290919082900301818387803b158015610b4d57600080fd5b505af1158015610b61573d6000803e3d6000fd5b50505050505050565b73ffffffffffffffffffffffffffffffffffffffff8181166000908152600460209081526040808320548151808301909252601c82527f54454d504c4154455f4d495353494e475f544f4b454e5f434143484500000000928201929092529192839291161515610c36576040517f08c379a000000000000000000000000000000000000000000000000000000000815260040180806020018281038252838181518152602001915080519060200190808383600083811015610430578181015183820152602001610418565b50505073ffffffffffffffffffffffffffffffffffffffff908116600090815260046020526040902080547fffffffffffffffffffffffff000000000000000000000000000000000000000081169091551690565b600080610cb8867f6b20a3010614eeebf2138ccec99f028a61c811b3b1a3343b6ff635985c75c91f6116a4565b90508473ffffffffffffffffffffffffffffffffffffffff16633cebb823826040518263ffffffff167c0100000000000000000000000000000000000000000000000000000000028152600401808273ffffffffffffffffffffffffffffffffffffffff1673ffffffffffffffffffffffffffffffffffffffff168152602001915050600060405180830381600087803b158015610d5557600080fd5b505af1158015610d69573d6000803e3d6000fd5b5050604080517fe37ff29f00000000000000000000000000000000000000000000000000000000815273ffffffffffffffffffffffffffffffffffffffff89811660048301528815156024830152604482018890529151918516935063e37ff29f925060648082019260009290919082900301818387803b158015610ded57600080fd5b505af1158015610e01573d6000803e3d6000fd5b509298975050505050505050565b805160208201516040830151600092610e2d928792879291906116c1565b949350505050565b6000610ea085858673ffffffffffffffffffffffffffffffffffffffff1663e9a9c8506040518163ffffffff167c0100000000000000000000000000000000000000000000000000000000028152600401602060405180830381600087803b158015610a1757600080fd5b5060005b8251811015610fa2578373ffffffffffffffffffffffffffffffffffffffff166340c10f198483815181101515610ed757fe5b906020019060200201518484815181101515610eef57fe5b906020019060200201516040518363ffffffff167c0100000000000000000000000000000000000000000000000000000000028152600401808373ffffffffffffffffffffffffffffffffffffffff1673ffffffffffffffffffffffffffffffffffffffff16815260200182815260200192505050600060405180830381600087803b158015610f7e57600080fd5b505af1158015610f92573d6000803e3d6000fd5b505060019092019150610ea49050565b61103c85858673ffffffffffffffffffffffffffffffffffffffff1663e9a9c8506040518163ffffffff167c0100000000000000000000000000000000000000000000000000000000028152600401602060405180830381600087803b15801561100b57600080fd5b505af115801561101f573d6000803e3d6000fd5b505050506040513d602081101561103557600080fd5b5051611798565b5050505050565b61104e8383846118a6565b61105b8383848486611baa565b61106783828485611f81565b505050565b60008060606110af6040805190810160405280600481526020017f6f70656e0000000000000000000000000000000000000000000000000000000081525061214c565b604080517f6d6f636b2d6170700000000000000000000000000000000000000000000000008152815190819003600801812060208083019490945281830152815180820383018152606090910191829052805190928291908401908083835b6020831061114b57805182527fffffffffffffffffffffffffffffffffffffffffffffffffffffffffffffffe0909201916020918201910161110e565b5181517fffffffffffffffffffffffffffffffffffffffffffffffffffffffffffffffff60209485036101000a01908116901991909116179052604080519490920184900384206004855260248501909252830180517bffffffffffffffffffffffffffffffffffffffffffffffffffffffff167f8129fc1c000000000000000000000000000000000000000000000000000000001790529550909350610e2d9250869150849050836122c6565b8373ffffffffffffffffffffffffffffffffffffffff1663be03847883858673ffffffffffffffffffffffffffffffffffffffff1663029bb7e36040518163ffffffff167c0100000000000000000000000000000000000000000000000000000000028152600401602060405180830381600087803b15801561127b57600080fd5b505af115801561128f573d6000803e3d6000fd5b505050506040513d60208110156112a557600080fd5b5051604080517c010000000000000000000000000000000000000000000000000000000063ffffffff871602815273ffffffffffffffffffffffffffffffffffffffff94851660048201529284166024840152604483019190915291851660648201529051608480830192600092919082900301818387803b15801561132a57600080fd5b505af115801561133e573d6000803e3d6000fd5b505050508373ffffffffffffffffffffffffffffffffffffffff1663be0384787fffffffffffffffffffffffffffffffffffffffffffffffffffffffffffffffff858673ffffffffffffffffffffffffffffffffffffffff1663e999688f6040518163ffffffff167c0100000000000000000000000000000000000000000000000000000000028152600401602060405180830381600087803b1580156113e457600080fd5b505af11580156113f8573d6000803e3d6000fd5b505050506040513d602081101561140e57600080fd5b5051604080517c010000000000000000000000000000000000000000000000000000000063ffffffff871602815273ffffffffffffffffffffffffffffffffffffffff94851660048201529284166024840152604483019190915291851660648201529051608480830192600092919082900301818387803b15801561149357600080fd5b505af11580156114a7573d6000803e3d6000fd5b5050505050505050565b60008373ffffffffffffffffffffffffffffffffffffffff1663de2873596040518163ffffffff167c0100000000000000000000000000000000000000000000000000000000028152600401602060405180830381600087803b15801561151757600080fd5b505af115801561152b573d6000803e3d6000fd5b505050506040513d602081101561154157600080fd5b5051604080517f8ea8dc9d00000000000000000000000000000000000000000000000000000000815290519192506115eb9183918791879173ffffffffffffffffffffffffffffffffffffffff841691638ea8dc9d916004808201926020929091908290030181600087803b1580156115b957600080fd5b505af11580156115cd573d6000803e3d6000fd5b505050506040513d60208110156115e357600080fd5b5051866122d5565b6116558182858473ffffffffffffffffffffffffffffffffffffffff16633d6ab68f6040518163ffffffff167c0100000000000000000000000000000000000000000000000000000000028152600401602060405180830381600087803b1580156115b957600080fd5b6040805173ffffffffffffffffffffffffffffffffffffffff8616815290517f17592627a66846ce06d92a1708275bc653b2a3f34aec855584b819872a8ba4139181900360200190a150505050565b604080516000808252602082019092526102329084908490612483565b6040805173ffffffffffffffffffffffffffffffffffffffff8616602482015267ffffffffffffffff8086166044830152808516606483015283166084808301919091528251808303909101815260a49091019091526020810180517bffffffffffffffffffffffffffffffffffffffffffffffffffffffff167fdf3d33050000000000000000000000000000000000000000000000000000000017905260009061178d877f9fa3927f639745e587912d4b0fea7ef9013bf93fb907d29faeab57417ba6e1d483612483565b979650505050505050565b604080517f9d0effdb00000000000000000000000000000000000000000000000000000000815230600482015273ffffffffffffffffffffffffffffffffffffffff848116602483015260448201849052915191851691639d0effdb9160648082019260009290919082900301818387803b15801561181657600080fd5b505af115801561182a573d6000803e3d6000fd5b5050604080517fa885508a00000000000000000000000000000000000000000000000000000000815273ffffffffffffffffffffffffffffffffffffffff8681166004830152602482018690529151918716935063a885508a925060448082019260009290919082900301818387803b158015610b4d57600080fd5b60008373ffffffffffffffffffffffffffffffffffffffff1663a479e5086040518163ffffffff167c0100000000000000000000000000000000000000000000000000000000028152600401602060405180830381600087803b15801561190c57600080fd5b505af1158015611920573d6000803e3d6000fd5b505050506040513d602081101561193657600080fd5b5051604080517fbd8fde1c000000000000000000000000000000000000000000000000000000008152905191925073ffffffffffffffffffffffffffffffffffffffff8087169263be03847892879286929083169163bd8fde1c9160048083019260209291908290030181600087803b1580156119b257600080fd5b505af11580156119c6573d6000803e3d6000fd5b505050506040513d60208110156119dc57600080fd5b5051604080517c010000000000000000000000000000000000000000000000000000000063ffffffff871602815273ffffffffffffffffffffffffffffffffffffffff94851660048201529284166024840152604483019190915291861660648201529051608480830192600092919082900301818387803b158015611a6157600080fd5b505af1158015611a75573d6000803e3d6000fd5b505050508373ffffffffffffffffffffffffffffffffffffffff1663be03847884838473ffffffffffffffffffffffffffffffffffffffff166319f3d10f6040518163ffffffff167c0100000000000000000000000000000000000000000000000000000000028152600401602060405180830381600087803b158015611afb57600080fd5b505af1158015611b0f573d6000803e3d6000fd5b505050506040513d6020811015611b2557600080fd5b5051604080517c010000000000000000000000000000000000000000000000000000000063ffffffff871602815273ffffffffffffffffffffffffffffffffffffffff94851660048201529284166024840152604483019190915291861660648201529051608480830192600092919082900301818387803b15801561149357600080fd5b8473ffffffffffffffffffffffffffffffffffffffff1663be03847884868773ffffffffffffffffffffffffffffffffffffffff16633c624c756040518163ffffffff167c0100000000000000000000000000000000000000000000000000000000028152600401602060405180830381600087803b158015611c2c57600080fd5b505af1158015611c40573d6000803e3d6000fd5b505050506040513d6020811015611c5657600080fd5b5051604080517c010000000000000000000000000000000000000000000000000000000063ffffffff871602815273ffffffffffffffffffffffffffffffffffffffff94851660048201529284166024840152604483019190915291851660648201529051608480830192600092919082900301818387803b158015611cdb57600080fd5b505af1158015611cef573d6000803e3d6000fd5b505050508473ffffffffffffffffffffffffffffffffffffffff1663be03847884868773ffffffffffffffffffffffffffffffffffffffff166362de7e5a6040518163ffffffff167c0100000000000000000000000000000000000000000000000000000000028152600401602060405180830381600087803b158015611d7557600080fd5b505af1158015611d89573d6000803e3d6000fd5b505050506040513d6020811015611d9f57600080fd5b5051604080517c010000000000000000000000000000000000000000000000000000000063ffffffff871602815273ffffffffffffffffffffffffffffffffffffffff94851660048201529284166024840152604483019190915291851660648201529051608480830192600092919082900301818387803b158015611e2457600080fd5b505af1158015611e38573d6000803e3d6000fd5b505050508473ffffffffffffffffffffffffffffffffffffffff1663be03847883868773ffffffffffffffffffffffffffffffffffffffff1663be2c64d46040518163ffffffff167c0100000000000000000000000000000000000000000000000000000000028152600401602060405180830381600087803b158015611ebe57600080fd5b505af1158015611ed2573d6000803e3d6000fd5b505050506040513d6020811015611ee857600080fd5b5051604080517c010000000000000000000000000000000000000000000000000000000063ffffffff871602815273ffffffffffffffffffffffffffffffffffffffff94851660048201529284166024840152604483019190915291851660648201529051608480830192600092919082900301818387803b158015611f6d57600080fd5b505af1158015610321573d6000803e3d6000fd5b8373ffffffffffffffffffffffffffffffffffffffff1663be03847883858673ffffffffffffffffffffffffffffffffffffffff1663e9a9c8506040518163ffffffff167c0100000000000000000000000000000000000000000000000000000000028152600401602060405180830381600087803b15801561200357600080fd5b505af1158015612017573d6000803e3d6000fd5b505050506040513d602081101561202d57600080fd5b5051604080517c010000000000000000000000000000000000000000000000000000000063ffffffff871602815273ffffffffffffffffffffffffffffffffffffffff94851660048201529284166024840152604483019190915291851660648201529051608480830192600092919082900301818387803b1580156120b257600080fd5b505af11580156120c6573d6000803e3d6000fd5b505050508373ffffffffffffffffffffffffffffffffffffffff1663be03847883858673ffffffffffffffffffffffffffffffffffffffff1663b930908f6040518163ffffffff167c0100000000000000000000000000000000000000000000000000000000028152600401602060405180830381600087803b1580156113e457600080fd5b60007f9065c3e7f7b7ef1ef4e53d2d0b8e0cef02874ab020c1ece79d5f0d3d0111c0ba600102826040518082805190602001908083835b602083106121c057805182527fffffffffffffffffffffffffffffffffffffffffffffffffffffffffffffffe09092019160209182019101612183565b51815160209384036101000a7fffffffffffffffffffffffffffffffffffffffffffffffffffffffffffffffff0180199092169116179052604080519290940182900382208282019790975281840196909652825180820384018152606090910192839052805190959294508493509185019190508083835b6020831061227657805182527fffffffffffffffffffffffffffffffffffffffffffffffffffffffffffffffe09092019160209182019101612239565b5181516020939093036101000a7fffffffffffffffffffffffffffffffffffffffffffffffffffffffffffffffff0180199091169216919091179052604051920182900390912095945050505050565b6000610e2d848484600161248e565b604080517f0a8ed3db00000000000000000000000000000000000000000000000000000000815273ffffffffffffffffffffffffffffffffffffffff8581166004830152868116602483015260448201859052915191871691630a8ed3db9160648082019260009290919082900301818387803b15801561235557600080fd5b505af1158015612369573d6000803e3d6000fd5b5050604080517f9d0effdb00000000000000000000000000000000000000000000000000000000815230600482015273ffffffffffffffffffffffffffffffffffffffff88811660248301526044820187905291519189169350639d0effdb925060648082019260009290919082900301818387803b1580156123eb57600080fd5b505af11580156123ff573d6000803e3d6000fd5b5050604080517fafd925df00000000000000000000000000000000000000000000000000000000815273ffffffffffffffffffffffffffffffffffffffff85811660048301528881166024830152604482018790529151918916935063afd925df925060648082019260009290919082900301818387803b158015611f6d57600080fd5b6000610e2d84848460005b600080600061249c86612615565b6040517f397edd410000000000000000000000000000000000000000000000000000000081526004810188815273ffffffffffffffffffffffffffffffffffffffff80841660248401528715156064840152608060448401908152895160848501528951949650908b169363397edd41938b9388938c938c9360a40190602086019080838360005b8381101561253c578181015183820152602001612524565b50505050905090810190601f1680156125695780820380516001836020036101000a031916815260200191505b5095505050505050602060405180830381600087803b15801561258b57600080fd5b505af115801561259f573d6000803e3d6000fd5b505050506040513d60208110156125b557600080fd5b50516040805173ffffffffffffffffffffffffffffffffffffffff831681526020810189905281519293507f2b183a501d4b1bbd30e6611ebac40ab18a00390e6c6bed324bf92a265c9ce6e3929081900390910190a19695505050505050565b60008054604080517f0178b8bf000000000000000000000000000000000000000000000000000000008152600481018590529051839273ffffffffffffffffffffffffffffffffffffffff1691630178b8bf91602480830192602092919082900301818787803b15801561268857600080fd5b505af115801561269c573d6000803e3d6000fd5b505050506040513d60208110156126b257600080fd5b5051604080517f3b3b57de00000000000000000000000000000000000000000000000000000000815260048101869052905173ffffffffffffffffffffffffffffffffffffffff90921691633b3b57de916024808201926020929091908290030181600087803b15801561272557600080fd5b505af1158015612739573d6000803e3d6000fd5b505050506040513d602081101561274f57600080fd5b5051604080517fc36af460000000000000000000000000000000000000000000000000000000008152905191925073ffffffffffffffffffffffffffffffffffffffff83169163c36af4609160048082019260009290919082900301818387803b1580156127bc57600080fd5b505af11580156127d0573d6000803e3d6000fd5b505050506040513d6000823e601f3d9081017fffffffffffffffffffffffffffffffffffffffffffffffffffffffffffffffe016820160405260a081101561281757600080fd5b6060820151608083018051919284019184919064010000000081111561283c57600080fd5b8201602081018481111561284f57600080fd5b815164010000000081118282018710171561286957600080fd5b509499985050505050505050505600a165627a7a7230582079d348ca4ffb0baee61571a468f1c17c1a957932af68151198b9bbe0447969770029",
  "source": "pragma solidity 0.4.24;\n\nimport \"@aragon/templates-shared/contracts/TokenCache.sol\";\nimport \"@aragon/templates-shared/contracts/BaseTemplate.sol\";\n\nimport \"./CounterApp.sol\";\n\n\ncontract Template is BaseTemplate, TokenCache {\n    string constant private ERROR_EMPTY_HOLDERS = \"TEMPLATE_EMPTY_HOLDERS\";\n    string constant private ERROR_BAD_HOLDERS_STAKES_LEN = \"TEMPLATE_BAD_HOLDERS_STAKES_LEN\";\n    string constant private ERROR_BAD_VOTE_SETTINGS = \"TEMPLATE_BAD_VOTE_SETTINGS\";\n\n    address constant private ANY_ENTITY = address(-1);\n    bool constant private TOKEN_TRANSFERABLE = true;\n    uint8 constant private TOKEN_DECIMALS = uint8(18);\n    uint256 constant private TOKEN_MAX_PER_ACCOUNT = uint256(0);\n\n    constructor (\n        DAOFactory _daoFactory,\n        ENS _ens,\n        MiniMeTokenFactory _miniMeFactory,\n        IFIFSResolvingRegistrar _aragonID\n    )\n        BaseTemplate(_daoFactory, _ens, _miniMeFactory, _aragonID)\n        public\n    {\n        _ensureAragonIdIsValid(_aragonID);\n        _ensureMiniMeFactoryIsValid(_miniMeFactory);\n    }\n\n    /**\n    * @dev Create a new MiniMe token and deploy a Template DAO.\n    * @param _tokenName String with the name for the token used by share holders in the organization\n    * @param _tokenSymbol String with the symbol for the token used by share holders in the organization\n    * @param _holders Array of token holder addresses\n    * @param _stakes Array of token stakes for holders (token has 18 decimals, multiply token amount `* 10^18`)\n    * @param _votingSettings Array of [supportRequired, minAcceptanceQuorum, voteDuration] to set up the voting app of the organization\n    */\n    function newTokenAndInstance(\n        string _tokenName,\n        string _tokenSymbol,\n        address[] _holders,\n        uint256[] _stakes,\n        uint64[3] _votingSettings\n    )\n        external\n    {\n        newToken(_tokenName, _tokenSymbol);\n        newInstance(_holders, _stakes, _votingSettings);\n    }\n\n    /**\n    * @dev Create a new MiniMe token and cache it for the user\n    * @param _name String with the name for the token used by share holders in the organization\n    * @param _symbol String with the symbol for the token used by share holders in the organization\n    */\n    function newToken(string memory _name, string memory _symbol) public returns (MiniMeToken) {\n        MiniMeToken token = _createToken(_name, _symbol, TOKEN_DECIMALS);\n        _cacheToken(token, msg.sender);\n        return token;\n    }\n\n    /**\n    * @dev Deploy a Template DAO using a previously cached MiniMe token\n    * @param _holders Array of token holder addresses\n    * @param _stakes Array of token stakes for holders (token has 18 decimals, multiply token amount `* 10^18`)\n    * @param _votingSettings Array of [supportRequired, minAcceptanceQuorum, voteDuration] to set up the voting app of the organization\n    */\n    function newInstance(\n        address[] memory _holders,\n        uint256[] memory _stakes,\n        uint64[3] memory _votingSettings\n    )\n        public\n    {\n        _ensureTemplateSettings(_holders, _stakes, _votingSettings);\n\n        (Kernel dao, ACL acl) = _createDAO();\n        (Voting voting) = _setupBaseApps(dao, acl, _holders, _stakes, _votingSettings);\n        // Setup mock-app app\n        _setupCustomApp(dao, acl, voting);\n        _transferRootPermissionsFromTemplateAndFinalizeDAO(dao, voting);\n    }\n\n    function _setupBaseApps(\n        Kernel _dao,\n        ACL _acl,\n        address[] memory _holders,\n        uint256[] memory _stakes,\n        uint64[3] memory _votingSettings\n    )\n        internal\n        returns (Voting)\n    {\n        MiniMeToken token = _popTokenCache(msg.sender);\n        TokenManager tokenManager = _installTokenManagerApp(_dao, token, TOKEN_TRANSFERABLE, TOKEN_MAX_PER_ACCOUNT);\n        Voting voting = _installVotingApp(_dao, token, _votingSettings);\n\n        _mintTokens(_acl, tokenManager, _holders, _stakes);\n        _setupBasePermissions(_acl, voting, tokenManager);\n\n        return (voting);\n    }\n\n    function _setupBasePermissions(\n        ACL _acl,\n        Voting _voting,\n        TokenManager _tokenManager\n    )\n        internal\n    {\n        _createEvmScriptsRegistryPermissions(_acl, _voting, _voting);\n        _createVotingPermissions(_acl, _voting, _voting, _tokenManager, _voting);\n        _createTokenManagerPermissions(_acl, _tokenManager, _voting, _voting);\n    }\n\n    // Next we install and create permissions for the mock-app app\n    //--------------------------------------------------------------//\n    function _setupCustomApp(\n        Kernel _dao,\n        ACL _acl,\n        Voting _voting\n    )\n        internal\n    {\n        CounterApp app = _installCounterApp(_dao);\n        _createCounterAppPermissions(_acl, app, _voting, _voting);\n    }\n\n    function _installCounterApp(\n        Kernel _dao\n    )\n        internal returns (CounterApp)\n    {\n        bytes32 _appId = keccak256(abi.encodePacked(apmNamehash(\"open\"), keccak256(\"mock-app\")));\n        bytes memory initializeData = abi.encodeWithSelector(CounterApp(0).initialize.selector);\n        return CounterApp(_installDefaultApp(_dao, _appId, initializeData));\n    }\n\n    function _createCounterAppPermissions(\n        ACL _acl,\n        CounterApp _app,\n        address _grantee,\n        address _manager\n    )\n        internal\n    {\n        _acl.createPermission(_grantee, _app, _app.INCREMENT_ROLE(), _manager);\n        _acl.createPermission(ANY_ENTITY, _app, _app.DECREMENT_ROLE(), _manager);\n    }\n\n    //--------------------------------------------------------------//\n\n    function _ensureTemplateSettings(\n        address[] memory _holders,\n        uint256[] memory _stakes,\n        uint64[3] memory _votingSettings\n    )\n        private\n        pure\n    {\n        require(_holders.length > 0, ERROR_EMPTY_HOLDERS);\n        require(_holders.length == _stakes.length, ERROR_BAD_HOLDERS_STAKES_LEN);\n        require(_votingSettings.length == 3, ERROR_BAD_VOTE_SETTINGS);\n    }\n}\n",
  "sourcePath": "/Users/gabi/code/Aragon/aragon-cli/packages/cli/test/mock/contracts/Template.sol",
  "compiler": {
    "name": "solc",
    "version": "0.4.24+commit.e67f0147.Emscripten.clang"
  },
  "schemaVersion": "3.0.19",
  "updatedAt": "2019-12-18T00:52:30.448Z",
  "devdoc": {
    "methods": {
      "newInstance(address[],uint256[],uint64[3])": {
        "details": "Deploy a Template DAO using a previously cached MiniMe token",
        "params": {
          "_holders": "Array of token holder addresses",
          "_stakes": "Array of token stakes for holders (token has 18 decimals, multiply token amount `* 10^18`)",
          "_votingSettings": "Array of [supportRequired, minAcceptanceQuorum, voteDuration] to set up the voting app of the organization"
        }
      },
      "newToken(string,string)": {
        "details": "Create a new MiniMe token and cache it for the user",
        "params": {
          "_name": "String with the name for the token used by share holders in the organization",
          "_symbol": "String with the symbol for the token used by share holders in the organization"
        }
      },
      "newTokenAndInstance(string,string,address[],uint256[],uint64[3])": {
        "details": "Create a new MiniMe token and deploy a Template DAO.",
        "params": {
          "_holders": "Array of token holder addresses",
          "_stakes": "Array of token stakes for holders (token has 18 decimals, multiply token amount `* 10^18`)",
          "_tokenName": "String with the name for the token used by share holders in the organization",
          "_tokenSymbol": "String with the symbol for the token used by share holders in the organization",
          "_votingSettings": "Array of [supportRequired, minAcceptanceQuorum, voteDuration] to set up the voting app of the organization"
        }
      }
    }
  },
  "userdoc": {
    "methods": {}
  }
}